{
  "_format": "hh-sol-artifact-1",
  "contractName": "Controller",
  "sourceName": "contracts/Controller.sol",
  "abi": [
    {
      "inputs": [
        {
          "internalType": "address",
          "name": "_owner",
          "type": "address"
        }
      ],
      "stateMutability": "nonpayable",
      "type": "constructor"
    },
    {
      "anonymous": false,
      "inputs": [
        {
          "indexed": true,
          "internalType": "address",
          "name": "owner",
          "type": "address"
        },
        {
          "indexed": false,
          "internalType": "address",
          "name": "streamAddress",
          "type": "address"
        },
        {
          "indexed": false,
          "internalType": "address",
          "name": "token",
          "type": "address"
        },
        {
          "indexed": false,
          "internalType": "address",
          "name": "receiver",
          "type": "address"
        },
        {
          "indexed": false,
          "internalType": "int96",
          "name": "flowRate",
          "type": "int96"
        },
        {
          "indexed": false,
          "internalType": "string",
          "name": "name",
          "type": "string"
        }
      ],
      "name": "newStream",
      "type": "event"
    },
    {
      "inputs": [
        {
          "internalType": "contract ISuperfluid",
          "name": "host",
          "type": "address"
        },
        {
          "internalType": "address",
          "name": "_receiver",
          "type": "address"
        },
        {
          "internalType": "address",
          "name": "_token",
          "type": "address"
        },
        {
          "internalType": "int96",
          "name": "_flowRate",
          "type": "int96"
        },
        {
          "internalType": "string",
          "name": "_name",
          "type": "string"
        }
      ],
      "name": "createNewStream",
      "outputs": [],
      "stateMutability": "nonpayable",
      "type": "function"
    },
    {
      "inputs": [],
      "name": "getAllStreamers",
      "outputs": [
        {
          "internalType": "contract Streamer[]",
          "name": "_streamers",
          "type": "address[]"
        }
      ],
      "stateMutability": "view",
      "type": "function"
    }
  ],
  "bytecode": "0x608060405234801561001057600080fd5b5060405161336b38038061336b8339818101604052810190610032919061008d565b806000806101000a81548173ffffffffffffffffffffffffffffffffffffffff021916908373ffffffffffffffffffffffffffffffffffffffff160217905550506100ff565b600081519050610087816100e8565b92915050565b60006020828403121561009f57600080fd5b60006100ad84828501610078565b91505092915050565b60006100c1826100c8565b9050919050565b600073ffffffffffffffffffffffffffffffffffffffff82169050919050565b6100f1816100b6565b81146100fc57600080fd5b50565b61325d8061010e6000396000f3fe60806040523480156200001157600080fd5b50600436106200003a5760003560e01c8063962a4948146200003f578063a32c47c41462000061575b600080fd5b6200004962000081565b60405162000058919062000591565b60405180910390f35b6200007f600480360381019062000079919062000392565b6200016a565b005b606060008054906101000a900473ffffffffffffffffffffffffffffffffffffffff1673ffffffffffffffffffffffffffffffffffffffff163373ffffffffffffffffffffffffffffffffffffffff1614620000dc57600080fd5b60018054806020026020016040519081016040528092919081815260200182805480156200016057602002820191906000526020600020905b8160009054906101000a900473ffffffffffffffffffffffffffffffffffffffff1673ffffffffffffffffffffffffffffffffffffffff168152602001906001019080831162000115575b5050505050905090565b60008054906101000a900473ffffffffffffffffffffffffffffffffffffffff1673ffffffffffffffffffffffffffffffffffffffff163373ffffffffffffffffffffffffffffffffffffffff1614620001c357600080fd5b600086868660008054906101000a900473ffffffffffffffffffffffffffffffffffffffff16878787604051620001fa90620002f2565b6200020c9796959493929190620005b5565b604051809103906000f08015801562000229573d6000803e3d6000fd5b5090506001819080600181540180825580915050600190039060005260206000200160009091909190916101000a81548173ffffffffffffffffffffffffffffffffffffffff021916908373ffffffffffffffffffffffffffffffffffffffff1602179055503373ffffffffffffffffffffffffffffffffffffffff167f565658083c942cdcb2edee4b53536ed89692a47db00e4a140858045f72b36a8a828789888888604051620002e1969594939291906200052b565b60405180910390a250505050505050565b612a9f806200078983390190565b60008135905062000311816200073a565b92915050565b600081359050620003288162000754565b92915050565b6000813590506200033f816200076e565b92915050565b60008083601f8401126200035857600080fd5b8235905067ffffffffffffffff8111156200037257600080fd5b6020830191508360018202830111156200038b57600080fd5b9250929050565b60008060008060008060a08789031215620003ac57600080fd5b6000620003bc89828a0162000317565b9650506020620003cf89828a0162000300565b9550506040620003e289828a0162000300565b9450506060620003f589828a016200032e565b935050608087013567ffffffffffffffff8111156200041357600080fd5b6200042189828a0162000345565b92509250509295509295509295565b60006200043e8383620004d6565b60208301905092915050565b620004558162000675565b82525050565b600062000468826200063b565b62000474818562000653565b935062000481836200062b565b8060005b83811015620004b85781516200049c888262000430565b9750620004a98362000646565b92505060018101905062000485565b5085935050505092915050565b620004d081620006ca565b82525050565b620004e181620006f2565b82525050565b620004f2816200069d565b82525050565b600062000506838562000664565b9350620005158385846200071a565b620005208362000729565b840190509392505050565b600060a0820190506200054260008301896200044a565b6200055160208301886200044a565b6200056060408301876200044a565b6200056f6060830186620004e7565b818103608083015262000584818486620004f8565b9050979650505050505050565b60006020820190508181036000830152620005ad81846200045b565b905092915050565b600060c082019050620005cc600083018a620004c5565b620005db60208301896200044a565b620005ea60408301886200044a565b620005f960608301876200044a565b620006086080830186620004e7565b81810360a08301526200061d818486620004f8565b905098975050505050505050565b6000819050602082019050919050565b600081519050919050565b6000602082019050919050565b600082825260208201905092915050565b600082825260208201905092915050565b60006200068282620006aa565b9050919050565b6000620006968262000675565b9050919050565b600081600b0b9050919050565b600073ffffffffffffffffffffffffffffffffffffffff82169050919050565b6000620006d782620006de565b9050919050565b6000620006eb82620006aa565b9050919050565b6000620006ff8262000706565b9050919050565b60006200071382620006aa565b9050919050565b82818337600083830152505050565b6000601f19601f8301169050919050565b620007458162000675565b81146200075157600080fd5b50565b6200075f8162000689565b81146200076b57600080fd5b50565b62000779816200069d565b81146200078557600080fd5b5056fe60806040523480156200001157600080fd5b5060405162002a9f38038062002a9f833981810160405281019062000037919062000499565b60405180604001604052808773ffffffffffffffffffffffffffffffffffffffff1681526020018773ffffffffffffffffffffffffffffffffffffffff1663b6d200de7fa9214cc96615e0085d3bb077758db69497dc2dce3b2b1e97bc93c3d18d83efd36040518263ffffffff1660e01b8152600401620000b9919062000559565b60206040518083038186803b158015620000d257600080fd5b505afa158015620000e7573d6000803e3d6000fd5b505050506040513d601f19601f820116820180604052508101906200010d91906200046d565b73ffffffffffffffffffffffffffffffffffffffff16815250600460008201518160000160006101000a81548173ffffffffffffffffffffffffffffffffffffffff021916908373ffffffffffffffffffffffffffffffffffffffff16021790555060208201518160010160006101000a81548173ffffffffffffffffffffffffffffffffffffffff021916908373ffffffffffffffffffffffffffffffffffffffff16021790555090505084600160006101000a81548173ffffffffffffffffffffffffffffffffffffffff021916908373ffffffffffffffffffffffffffffffffffffffff160217905550836000600c6101000a81548173ffffffffffffffffffffffffffffffffffffffff021916908373ffffffffffffffffffffffffffffffffffffffff16021790555082600360006101000a81548173ffffffffffffffffffffffffffffffffffffffff021916908373ffffffffffffffffffffffffffffffffffffffff160217905550816000806101000a8154816bffffffffffffffffffffffff0219169083600b0b6bffffffffffffffffffffffff1602179055508060029080519060200190620002c7929190620002ef565b506000600160146101000a81548160ff02191690831515021790555050505050505062000782565b828054620002fd9062000686565b90600052602060002090601f0160209004810192826200032157600085556200036d565b82601f106200033c57805160ff19168380011785556200036d565b828001600101855582156200036d579182015b828111156200036c5782518255916020019190600101906200034f565b5b5090506200037c919062000380565b5090565b5b808211156200039b57600081600090555060010162000381565b5090565b6000620003b6620003b084620005aa565b62000576565b905082815260208101848484011115620003cf57600080fd5b620003dc84828562000650565b509392505050565b600081519050620003f5816200071a565b92915050565b6000815190506200040c8162000734565b92915050565b60008151905062000423816200074e565b92915050565b6000815190506200043a8162000768565b92915050565b600082601f8301126200045257600080fd5b8151620004648482602086016200039f565b91505092915050565b6000602082840312156200048057600080fd5b60006200049084828501620003fb565b91505092915050565b60008060008060008060c08789031215620004b357600080fd5b6000620004c389828a0162000412565b9650506020620004d689828a01620003e4565b9550506040620004e989828a01620003e4565b9450506060620004fc89828a01620003e4565b93505060806200050f89828a0162000429565b92505060a087015167ffffffffffffffff8111156200052d57600080fd5b6200053b89828a0162000440565b9150509295509295509295565b6200055381620005f1565b82525050565b600060208201905062000570600083018462000548565b92915050565b6000604051905081810181811067ffffffffffffffff82111715620005a0576200059f620006eb565b5b8060405250919050565b600067ffffffffffffffff821115620005c857620005c7620006eb565b5b601f19601f8301169050602081019050919050565b6000620005ea8262000630565b9050919050565b6000819050919050565b60006200060882620005dd565b9050919050565b60006200061c82620005dd565b9050919050565b600081600b0b9050919050565b600073ffffffffffffffffffffffffffffffffffffffff82169050919050565b60005b838110156200067057808201518184015260208101905062000653565b8381111562000680576000848401525b50505050565b600060028204905060018216806200069f57607f821691505b60208210811415620006b657620006b5620006bc565b5b50919050565b7f4e487b7100000000000000000000000000000000000000000000000000000000600052602260045260246000fd5b7f4e487b7100000000000000000000000000000000000000000000000000000000600052604160045260246000fd5b6200072581620005dd565b81146200073157600080fd5b50565b6200073f81620005fb565b81146200074b57600080fd5b50565b62000759816200060f565b81146200076557600080fd5b50565b620007738162000623565b81146200077f57600080fd5b50565b61230d80620007926000396000f3fe608060405234801561001057600080fd5b50600436106101005760003560e01c8063b914616111610097578063d3112b2e11610066578063d3112b2e14610243578063f7260d3e14610262578063fc0c546a14610280578063ffe5c5521461029e57610100565b8063b9146161146101cf578063c47f0027146101ed578063ca13bf6514610209578063cca3a90e1461022757610100565b80635a096b2f116100d35780635a096b2f1461017b5780639dad93821461019f578063b6b55f25146101a9578063b87fe774146101c557610100565b806302fb0c5e1461010557806306fdde031461012357806312065fe0146101415780632e1a7d4d1461015f575b600080fd5b61010d6102a8565b60405161011a9190611d21565b60405180910390f35b61012b6102bb565b6040516101389190611eec565b60405180910390f35b610149610349565b6040516101569190611fae565b60405180910390f35b610179600480360381019061017491906119ea565b6103fa565b005b6101836105dd565b6040516101969796959493929190611e76565b60405180910390f35b6101a76107ed565b005b6101c360048036038101906101be91906119ea565b6109c9565b005b6101cd610bcb565b005b6101d7610cbe565b6040516101e49190611fae565b60405180910390f35b610207600480360381019061020291906119a5565b610d97565b005b610211610dad565b60405161021e9190611e5b565b60405180910390f35b610241600480360381019061023c91906118ff565b610dbe565b005b61024b610ef9565b604051610259929190611e32565b60405180910390f35b61026a610f4b565b6040516102779190611ca6565b60405180910390f35b610288610f71565b6040516102959190611d7f565b60405180910390f35b6102a6610f97565b005b600160149054906101000a900460ff1681565b600280546102c8906121ab565b80601f01602080910402602001604051908101604052809291908181526020018280546102f4906121ab565b80156103415780601f1061031657610100808354040283529160200191610341565b820191906000526020600020905b81548152906001019060200180831161032457829003601f168201915b505050505081565b600080600c9054906101000a900473ffffffffffffffffffffffffffffffffffffffff1673ffffffffffffffffffffffffffffffffffffffff166370a08231306040518263ffffffff1660e01b81526004016103a59190611ca6565b60206040518083038186803b1580156103bd57600080fd5b505afa1580156103d1573d6000803e3d6000fd5b505050506040513d601f19601f820116820180604052508101906103f59190611a13565b905090565b806000600c9054906101000a900473ffffffffffffffffffffffffffffffffffffffff1673ffffffffffffffffffffffffffffffffffffffff166370a08231306040518263ffffffff1660e01b81526004016104569190611ca6565b60206040518083038186803b15801561046e57600080fd5b505afa158015610482573d6000803e3d6000fd5b505050506040513d601f19601f820116820180604052508101906104a69190611a13565b10156104e7576040517f08c379a00000000000000000000000000000000000000000000000000000000081526004016104de90611f8e565b60405180910390fd5b600080600c9054906101000a900473ffffffffffffffffffffffffffffffffffffffff1673ffffffffffffffffffffffffffffffffffffffff1663a9059cbb33846040518363ffffffff1660e01b8152600401610545929190611cf8565b602060405180830381600087803b15801561055f57600080fd5b505af1158015610573573d6000803e3d6000fd5b505050506040513d601f19601f82011682018060405250810190610597919061193b565b9050806105d9576040517f08c379a00000000000000000000000000000000000000000000000000000000081526004016105d090611f6e565b60405180910390fd5b5050565b600080600080606060008060008054906101000a9004600b0b6000600c9054906101000a900473ffffffffffffffffffffffffffffffffffffffff16600160009054906101000a900473ffffffffffffffffffffffffffffffffffffffff16600160149054906101000a900460ff1660023073ffffffffffffffffffffffffffffffffffffffff166312065fe06040518163ffffffff1660e01b815260040160206040518083038186803b15801561069457600080fd5b505afa1580156106a8573d6000803e3d6000fd5b505050506040513d601f19601f820116820180604052508101906106cc9190611a13565b3073ffffffffffffffffffffffffffffffffffffffff1663b91461616040518163ffffffff1660e01b815260040160206040518083038186803b15801561071257600080fd5b505afa158015610726573d6000803e3d6000fd5b505050506040513d601f19601f8201168201806040525081019061074a9190611a13565b828054610756906121ab565b80601f0160208091040260200160405190810160405280929190818152602001828054610782906121ab565b80156107cf5780601f106107a4576101008083540402835291602001916107cf565b820191906000526020600020905b8154815290600101906020018083116107b257829003601f168201915b50505050509250965096509650965096509650965090919293949596565b600360009054906101000a900473ffffffffffffffffffffffffffffffffffffffff1673ffffffffffffffffffffffffffffffffffffffff163373ffffffffffffffffffffffffffffffffffffffff161461084757600080fd5b60011515600160149054906101000a900460ff1615151461089d576040517f08c379a000000000000000000000000000000000000000000000000000000000815260040161089490611f4e565b60405180910390fd5b6108f933600160009054906101000a900473ffffffffffffffffffffffffffffffffffffffff166000600c9054906101000a900473ffffffffffffffffffffffffffffffffffffffff1660046111d4909392919063ffffffff16565b6109ac6000600c9054906101000a900473ffffffffffffffffffffffffffffffffffffffff1673ffffffffffffffffffffffffffffffffffffffff166370a08231306040518263ffffffff1660e01b81526004016109579190611ca6565b60206040518083038186803b15801561096f57600080fd5b505afa158015610983573d6000803e3d6000fd5b505050506040513d601f19601f820116820180604052508101906109a79190611a13565b6103fa565b6000600160146101000a81548160ff021916908315150217905550565b600360009054906101000a900473ffffffffffffffffffffffffffffffffffffffff1673ffffffffffffffffffffffffffffffffffffffff163373ffffffffffffffffffffffffffffffffffffffff1614610a2357600080fd5b6000600c9054906101000a900473ffffffffffffffffffffffffffffffffffffffff1673ffffffffffffffffffffffffffffffffffffffff1663095ea7b330836040518363ffffffff1660e01b8152600401610a80929190611cf8565b602060405180830381600087803b158015610a9a57600080fd5b505af1158015610aae573d6000803e3d6000fd5b505050506040513d601f19601f82011682018060405250810190610ad2919061193b565b50600080600c9054906101000a900473ffffffffffffffffffffffffffffffffffffffff1673ffffffffffffffffffffffffffffffffffffffff166323b872dd3330856040518463ffffffff1660e01b8152600401610b3393929190611cc1565b602060405180830381600087803b158015610b4d57600080fd5b505af1158015610b61573d6000803e3d6000fd5b505050506040513d601f19601f82011682018060405250810190610b85919061193b565b905080610bc7576040517f08c379a0000000000000000000000000000000000000000000000000000000008152600401610bbe90611f6e565b60405180910390fd5b5050565b600360009054906101000a900473ffffffffffffffffffffffffffffffffffffffff1673ffffffffffffffffffffffffffffffffffffffff163373ffffffffffffffffffffffffffffffffffffffff1614610c2557600080fd5b60011515600160149054906101000a900460ff16151514610c4557600080fd5b6000600160146101000a81548160ff021916908315150217905550610cbc33600160009054906101000a900473ffffffffffffffffffffffffffffffffffffffff166000600c9054906101000a900473ffffffffffffffffffffffffffffffffffffffff1660046111d4909392919063ffffffff16565b565b60008060009054906101000a9004600b0b6bffffffffffffffffffffffff166000600c9054906101000a900473ffffffffffffffffffffffffffffffffffffffff1673ffffffffffffffffffffffffffffffffffffffff166370a08231306040518263ffffffff1660e01b8152600401610d389190611ca6565b60206040518083038186803b158015610d5057600080fd5b505afa158015610d64573d6000803e3d6000fd5b505050506040513d601f19601f82011682018060405250810190610d889190611a13565b610d929190612062565b905090565b818160029190610da8929190611741565b505050565b60008054906101000a9004600b0b81565b600360009054906101000a900473ffffffffffffffffffffffffffffffffffffffff1673ffffffffffffffffffffffffffffffffffffffff163373ffffffffffffffffffffffffffffffffffffffff1614610e1857600080fd5b81600160006101000a81548173ffffffffffffffffffffffffffffffffffffffff021916908373ffffffffffffffffffffffffffffffffffffffff160217905550806000806101000a8154816bffffffffffffffffffffffff0219169083600b0b6bffffffffffffffffffffffff160217905550610ef5600160009054906101000a900473ffffffffffffffffffffffffffffffffffffffff166000600c9054906101000a900473ffffffffffffffffffffffffffffffffffffffff1660008054906101000a9004600b0b60046113a3909392919063ffffffff16565b5050565b60048060000160009054906101000a900473ffffffffffffffffffffffffffffffffffffffff16908060010160009054906101000a900473ffffffffffffffffffffffffffffffffffffffff16905082565b600160009054906101000a900473ffffffffffffffffffffffffffffffffffffffff1681565b6000600c9054906101000a900473ffffffffffffffffffffffffffffffffffffffff1681565b600360009054906101000a900473ffffffffffffffffffffffffffffffffffffffff1673ffffffffffffffffffffffffffffffffffffffff163373ffffffffffffffffffffffffffffffffffffffff1614610ff157600080fd5b60001515600160149054906101000a900460ff16151514611047576040517f08c379a000000000000000000000000000000000000000000000000000000000815260040161103e90611f0e565b60405180910390fd5b60018060146101000a81548160ff02191690831515021790555060008054906101000a9004600b0b6bffffffffffffffffffffffff166000600c9054906101000a900473ffffffffffffffffffffffffffffffffffffffff1673ffffffffffffffffffffffffffffffffffffffff166370a08231306040518263ffffffff1660e01b81526004016110d89190611ca6565b60206040518083038186803b1580156110f057600080fd5b505afa158015611104573d6000803e3d6000fd5b505050506040513d601f19601f820116820180604052508101906111289190611a13565b1015611169576040517f08c379a000000000000000000000000000000000000000000000000000000000815260040161116090611f2e565b60405180910390fd5b6111d2600160009054906101000a900473ffffffffffffffffffffffffffffffffffffffff166000600c9054906101000a900473ffffffffffffffffffffffffffffffffffffffff1660008054906101000a9004600b0b6004611572909392919063ffffffff16565b565b8360000160009054906101000a900473ffffffffffffffffffffffffffffffffffffffff1673ffffffffffffffffffffffffffffffffffffffff166339255d5b8560010160009054906101000a900473ffffffffffffffffffffffffffffffffffffffff1663b4b333c660e01b848787600067ffffffffffffffff811115611285577f4e487b7100000000000000000000000000000000000000000000000000000000600052604160045260246000fd5b6040519080825280601f01601f1916602001820160405280156112b75781602001600182028036833780820191505090505b506040516024016112cb9493929190611d9a565b604051602081830303815290604052907bffffffffffffffffffffffffffffffffffffffffffffffffffffffff19166020820180517bffffffffffffffffffffffffffffffffffffffffffffffffffffffff83818316178352505050506040518363ffffffff1660e01b8152600401611345929190611d3c565b600060405180830381600087803b15801561135f57600080fd5b505af1158015611373573d6000803e3d6000fd5b505050506040513d6000823e3d601f19601f8201168201806040525081019061139c9190611964565b5050505050565b8360000160009054906101000a900473ffffffffffffffffffffffffffffffffffffffff1673ffffffffffffffffffffffffffffffffffffffff166339255d5b8560010160009054906101000a900473ffffffffffffffffffffffffffffffffffffffff166350209a6260e01b858786600067ffffffffffffffff811115611454577f4e487b7100000000000000000000000000000000000000000000000000000000600052604160045260246000fd5b6040519080825280601f01601f1916602001820160405280156114865781602001600182028036833780820191505090505b5060405160240161149a9493929190611de6565b604051602081830303815290604052907bffffffffffffffffffffffffffffffffffffffffffffffffffffffff19166020820180517bffffffffffffffffffffffffffffffffffffffffffffffffffffffff83818316178352505050506040518363ffffffff1660e01b8152600401611514929190611d3c565b600060405180830381600087803b15801561152e57600080fd5b505af1158015611542573d6000803e3d6000fd5b505050506040513d6000823e3d601f19601f8201168201806040525081019061156b9190611964565b5050505050565b8360000160009054906101000a900473ffffffffffffffffffffffffffffffffffffffff1673ffffffffffffffffffffffffffffffffffffffff166339255d5b8560010160009054906101000a900473ffffffffffffffffffffffffffffffffffffffff166362fc305e60e01b858786600067ffffffffffffffff811115611623577f4e487b7100000000000000000000000000000000000000000000000000000000600052604160045260246000fd5b6040519080825280601f01601f1916602001820160405280156116555781602001600182028036833780820191505090505b506040516024016116699493929190611de6565b604051602081830303815290604052907bffffffffffffffffffffffffffffffffffffffffffffffffffffffff19166020820180517bffffffffffffffffffffffffffffffffffffffffffffffffffffffff83818316178352505050506040518363ffffffff1660e01b81526004016116e3929190611d3c565b600060405180830381600087803b1580156116fd57600080fd5b505af1158015611711573d6000803e3d6000fd5b505050506040513d6000823e3d601f19601f8201168201806040525081019061173a9190611964565b5050505050565b82805461174d906121ab565b90600052602060002090601f01602090048101928261176f57600085556117b6565b82601f1061178857803560ff19168380011785556117b6565b828001600101855582156117b6579182015b828111156117b557823582559160200191906001019061179a565b5b5090506117c391906117c7565b5090565b5b808211156117e05760008160009055506001016117c8565b5090565b60006117f76117f284611ffa565b611fc9565b90508281526020810184848401111561180f57600080fd5b61181a848285612178565b509392505050565b6000813590506118318161227b565b92915050565b60008151905061184681612292565b92915050565b600082601f83011261185d57600080fd5b815161186d8482602086016117e4565b91505092915050565b600081359050611885816122a9565b92915050565b60008083601f84011261189d57600080fd5b8235905067ffffffffffffffff8111156118b657600080fd5b6020830191508360018202830111156118ce57600080fd5b9250929050565b6000813590506118e4816122c0565b92915050565b6000815190506118f9816122c0565b92915050565b6000806040838503121561191257600080fd5b600061192085828601611822565b925050602061193185828601611876565b9150509250929050565b60006020828403121561194d57600080fd5b600061195b84828501611837565b91505092915050565b60006020828403121561197657600080fd5b600082015167ffffffffffffffff81111561199057600080fd5b61199c8482850161184c565b91505092915050565b600080602083850312156119b857600080fd5b600083013567ffffffffffffffff8111156119d257600080fd5b6119de8582860161188b565b92509250509250929050565b6000602082840312156119fc57600080fd5b6000611a0a848285016118d5565b91505092915050565b600060208284031215611a2557600080fd5b6000611a33848285016118ea565b91505092915050565b611a4581612093565b82525050565b611a54816120a5565b82525050565b6000611a658261202a565b611a6f8185612040565b9350611a7f818560208601612178565b611a888161226a565b840191505092915050565b611a9c816120e8565b82525050565b611aab8161210c565b82525050565b611aba81612130565b82525050565b611ac981612154565b82525050565b611ad8816120b1565b82525050565b6000611ae982612035565b611af38185612051565b9350611b03818560208601612178565b611b0c8161226a565b840191505092915050565b6000611b24601883612051565b91507f612073747265616d20697320616c7265616479206f70656e00000000000000006000830152602082019050919050565b6000611b64600283612040565b91507f30780000000000000000000000000000000000000000000000000000000000006000830152602082019050919050565b6000611ba4601d83612051565b91507f4e6f7420656e6f7567682062616c616e6365206465706f73697465642e0000006000830152602082019050919050565b6000611be4601683612051565b91507f7468652073747265616d206973206e6f74206f70656e000000000000000000006000830152602082019050919050565b6000611c24601683612051565b91507f546f6b656e207472616e73666572206661696c65642e000000000000000000006000830152602082019050919050565b6000611c64601383612051565b91507f496e73756666696369656e742066756e64732e000000000000000000000000006000830152602082019050919050565b611ca0816120de565b82525050565b6000602082019050611cbb6000830184611a3c565b92915050565b6000606082019050611cd66000830186611a3c565b611ce36020830185611a3c565b611cf06040830184611c97565b949350505050565b6000604082019050611d0d6000830185611a3c565b611d1a6020830184611c97565b9392505050565b6000602082019050611d366000830184611a4b565b92915050565b6000606082019050611d516000830185611a93565b8181036020830152611d638184611a5a565b90508181036040830152611d7681611b57565b90509392505050565b6000602082019050611d946000830184611aa2565b92915050565b6000608082019050611daf6000830187611ab1565b611dbc6020830186611a3c565b611dc96040830185611a3c565b8181036060830152611ddb8184611a5a565b905095945050505050565b6000608082019050611dfb6000830187611ab1565b611e086020830186611a3c565b611e156040830185611acf565b8181036060830152611e278184611a5a565b905095945050505050565b6000604082019050611e476000830185611ac0565b611e546020830184611a93565b9392505050565b6000602082019050611e706000830184611acf565b92915050565b600060e082019050611e8b600083018a611acf565b611e986020830189611aa2565b611ea56040830188611a3c565b611eb26060830187611a4b565b8181036080830152611ec48186611ade565b9050611ed360a0830185611c97565b611ee060c0830184611c97565b98975050505050505050565b60006020820190508181036000830152611f068184611ade565b905092915050565b60006020820190508181036000830152611f2781611b17565b9050919050565b60006020820190508181036000830152611f4781611b97565b9050919050565b60006020820190508181036000830152611f6781611bd7565b9050919050565b60006020820190508181036000830152611f8781611c17565b9050919050565b60006020820190508181036000830152611fa781611c57565b9050919050565b6000602082019050611fc36000830184611c97565b92915050565b6000604051905081810181811067ffffffffffffffff82111715611ff057611fef61223b565b5b8060405250919050565b600067ffffffffffffffff8211156120155761201461223b565b5b601f19601f8301169050602081019050919050565b600081519050919050565b600081519050919050565b600082825260208201905092915050565b600082825260208201905092915050565b600061206d826120de565b9150612078836120de565b925082612088576120876121dd565b5b828204905092915050565b600061209e826120be565b9050919050565b60008115159050919050565b600081600b0b9050919050565b600073ffffffffffffffffffffffffffffffffffffffff82169050919050565b6000819050919050565b60006120f3826120fa565b9050919050565b6000612105826120be565b9050919050565b60006121178261211e565b9050919050565b6000612129826120be565b9050919050565b600061213b82612142565b9050919050565b600061214d826120be565b9050919050565b600061215f82612166565b9050919050565b6000612171826120be565b9050919050565b60005b8381101561219657808201518184015260208101905061217b565b838111156121a5576000848401525b50505050565b600060028204905060018216806121c357607f821691505b602082108114156121d7576121d661220c565b5b50919050565b7f4e487b7100000000000000000000000000000000000000000000000000000000600052601260045260246000fd5b7f4e487b7100000000000000000000000000000000000000000000000000000000600052602260045260246000fd5b7f4e487b7100000000000000000000000000000000000000000000000000000000600052604160045260246000fd5b6000601f19601f8301169050919050565b61228481612093565b811461228f57600080fd5b50565b61229b816120a5565b81146122a657600080fd5b50565b6122b2816120b1565b81146122bd57600080fd5b50565b6122c9816120de565b81146122d457600080fd5b5056fea26469706673582212201a367b48677965d86b3f9efe780857358c52a41638315f2b86973cf60bbbcdb464736f6c63430008000033a26469706673582212208de688887dc1ffd3b9d6a20348d340d59133838c5e5451637e9b069e1220c10864736f6c63430008000033",
  "linkReferences": {},
  "deployedLinkReferences": {}
}