{
  "_format": "hh-sol-artifact-1",
  "contractName": "Controller",
  "sourceName": "contracts/Controller.sol",
  "abi": [
    {
      "inputs": [
        {
          "internalType": "address",
          "name": "_owner",
          "type": "address"
        }
      ],
      "stateMutability": "nonpayable",
      "type": "constructor"
    },
    {
      "anonymous": false,
      "inputs": [
        {
          "indexed": true,
          "internalType": "address",
          "name": "owner",
          "type": "address"
        },
        {
          "indexed": false,
          "internalType": "address",
          "name": "streamAddress",
          "type": "address"
        },
        {
          "indexed": false,
          "internalType": "address",
          "name": "token",
          "type": "address"
        },
        {
          "indexed": false,
          "internalType": "address",
          "name": "receiver",
          "type": "address"
        }
      ],
      "name": "newStream",
      "type": "event"
    },
    {
      "inputs": [
        {
          "internalType": "contract ISuperfluid",
          "name": "host",
          "type": "address"
        },
        {
          "internalType": "address",
          "name": "_receiver",
          "type": "address"
        },
        {
          "internalType": "address",
          "name": "_token",
          "type": "address"
        },
        {
          "internalType": "int96",
          "name": "_flowRate",
          "type": "int96"
        },
        {
          "internalType": "string",
          "name": "_name",
          "type": "string"
        }
      ],
      "name": "createNewStream",
      "outputs": [],
      "stateMutability": "nonpayable",
      "type": "function"
    },
    {
      "inputs": [],
      "name": "getAllStreamers",
      "outputs": [
        {
          "internalType": "contract Streamer[]",
          "name": "_streamers",
          "type": "address[]"
        }
      ],
      "stateMutability": "view",
      "type": "function"
    }
  ],
  "bytecode": "0x608060405234801561001057600080fd5b506040516132333803806132338339818101604052810190610032919061008d565b806000806101000a81548173ffffffffffffffffffffffffffffffffffffffff021916908373ffffffffffffffffffffffffffffffffffffffff160217905550506100ff565b600081519050610087816100e8565b92915050565b60006020828403121561009f57600080fd5b60006100ad84828501610078565b91505092915050565b60006100c1826100c8565b9050919050565b600073ffffffffffffffffffffffffffffffffffffffff82169050919050565b6100f1816100b6565b81146100fc57600080fd5b50565b6131258061010e6000396000f3fe60806040523480156200001157600080fd5b50600436106200003a5760003560e01c8063962a4948146200003f578063a32c47c41462000061575b600080fd5b6200004962000081565b60405162000058919062000509565b60405180910390f35b6200007f600480360381019062000079919062000333565b62000111565b005b606060018054806020026020016040519081016040528092919081815260200182805480156200010757602002820191906000526020600020905b8160009054906101000a900473ffffffffffffffffffffffffffffffffffffffff1673ffffffffffffffffffffffffffffffffffffffff1681526020019060010190808311620000bc575b5050505050905090565b60008054906101000a900473ffffffffffffffffffffffffffffffffffffffff1673ffffffffffffffffffffffffffffffffffffffff163373ffffffffffffffffffffffffffffffffffffffff16146200016a57600080fd5b600086868660008054906101000a900473ffffffffffffffffffffffffffffffffffffffff16878787604051620001a19062000293565b620001b397969594939291906200052d565b604051809103906000f080158015620001d0573d6000803e3d6000fd5b5090506001819080600181540180825580915050600190039060005260206000200160009091909190916101000a81548173ffffffffffffffffffffffffffffffffffffffff021916908373ffffffffffffffffffffffffffffffffffffffff1602179055503373ffffffffffffffffffffffffffffffffffffffff167f1e129934fd1c0e40f1b0f98f531dce9e51f68ca6588c4d4dfdf7a9a2332207808287896040516200028293929190620004cc565b60405180910390a250505050505050565b6129ef806200070183390190565b600081359050620002b281620006b2565b92915050565b600081359050620002c981620006cc565b92915050565b600081359050620002e081620006e6565b92915050565b60008083601f840112620002f957600080fd5b8235905067ffffffffffffffff8111156200031357600080fd5b6020830191508360018202830111156200032c57600080fd5b9250929050565b60008060008060008060a087890312156200034d57600080fd5b60006200035d89828a01620002b8565b96505060206200037089828a01620002a1565b95505060406200038389828a01620002a1565b94505060606200039689828a01620002cf565b935050608087013567ffffffffffffffff811115620003b457600080fd5b620003c289828a01620002e6565b92509250509295509295509295565b6000620003df838362000477565b60208301905092915050565b620003f681620005ed565b82525050565b60006200040982620005b3565b620004158185620005cb565b93506200042283620005a3565b8060005b83811015620004595781516200043d8882620003d1565b97506200044a83620005be565b92505060018101905062000426565b5085935050505092915050565b620004718162000642565b82525050565b62000482816200066a565b82525050565b620004938162000615565b82525050565b6000620004a78385620005dc565b9350620004b683858462000692565b620004c183620006a1565b840190509392505050565b6000606082019050620004e36000830186620003eb565b620004f26020830185620003eb565b620005016040830184620003eb565b949350505050565b60006020820190508181036000830152620005258184620003fc565b905092915050565b600060c08201905062000544600083018a62000466565b620005536020830189620003eb565b620005626040830188620003eb565b620005716060830187620003eb565b62000580608083018662000488565b81810360a08301526200059581848662000499565b905098975050505050505050565b6000819050602082019050919050565b600081519050919050565b6000602082019050919050565b600082825260208201905092915050565b600082825260208201905092915050565b6000620005fa8262000622565b9050919050565b60006200060e82620005ed565b9050919050565b600081600b0b9050919050565b600073ffffffffffffffffffffffffffffffffffffffff82169050919050565b60006200064f8262000656565b9050919050565b6000620006638262000622565b9050919050565b600062000677826200067e565b9050919050565b60006200068b8262000622565b9050919050565b82818337600083830152505050565b6000601f19601f8301169050919050565b620006bd81620005ed565b8114620006c957600080fd5b50565b620006d78162000601565b8114620006e357600080fd5b50565b620006f18162000615565b8114620006fd57600080fd5b5056fe60806040523480156200001157600080fd5b50604051620029ef380380620029ef833981810160405281019062000037919062000499565b60405180604001604052808773ffffffffffffffffffffffffffffffffffffffff1681526020018773ffffffffffffffffffffffffffffffffffffffff1663b6d200de7fa9214cc96615e0085d3bb077758db69497dc2dce3b2b1e97bc93c3d18d83efd36040518263ffffffff1660e01b8152600401620000b9919062000559565b60206040518083038186803b158015620000d257600080fd5b505afa158015620000e7573d6000803e3d6000fd5b505050506040513d601f19601f820116820180604052508101906200010d91906200046d565b73ffffffffffffffffffffffffffffffffffffffff16815250600460008201518160000160006101000a81548173ffffffffffffffffffffffffffffffffffffffff021916908373ffffffffffffffffffffffffffffffffffffffff16021790555060208201518160010160006101000a81548173ffffffffffffffffffffffffffffffffffffffff021916908373ffffffffffffffffffffffffffffffffffffffff16021790555090505084600160006101000a81548173ffffffffffffffffffffffffffffffffffffffff021916908373ffffffffffffffffffffffffffffffffffffffff160217905550836000600c6101000a81548173ffffffffffffffffffffffffffffffffffffffff021916908373ffffffffffffffffffffffffffffffffffffffff16021790555082600360006101000a81548173ffffffffffffffffffffffffffffffffffffffff021916908373ffffffffffffffffffffffffffffffffffffffff160217905550816000806101000a8154816bffffffffffffffffffffffff0219169083600b0b6bffffffffffffffffffffffff1602179055508060029080519060200190620002c7929190620002ef565b506000600160146101000a81548160ff02191690831515021790555050505050505062000782565b828054620002fd9062000686565b90600052602060002090601f0160209004810192826200032157600085556200036d565b82601f106200033c57805160ff19168380011785556200036d565b828001600101855582156200036d579182015b828111156200036c5782518255916020019190600101906200034f565b5b5090506200037c919062000380565b5090565b5b808211156200039b57600081600090555060010162000381565b5090565b6000620003b6620003b084620005aa565b62000576565b905082815260208101848484011115620003cf57600080fd5b620003dc84828562000650565b509392505050565b600081519050620003f5816200071a565b92915050565b6000815190506200040c8162000734565b92915050565b60008151905062000423816200074e565b92915050565b6000815190506200043a8162000768565b92915050565b600082601f8301126200045257600080fd5b8151620004648482602086016200039f565b91505092915050565b6000602082840312156200048057600080fd5b60006200049084828501620003fb565b91505092915050565b60008060008060008060c08789031215620004b357600080fd5b6000620004c389828a0162000412565b9650506020620004d689828a01620003e4565b9550506040620004e989828a01620003e4565b9450506060620004fc89828a01620003e4565b93505060806200050f89828a0162000429565b92505060a087015167ffffffffffffffff8111156200052d57600080fd5b6200053b89828a0162000440565b9150509295509295509295565b6200055381620005f1565b82525050565b600060208201905062000570600083018462000548565b92915050565b6000604051905081810181811067ffffffffffffffff82111715620005a0576200059f620006eb565b5b8060405250919050565b600067ffffffffffffffff821115620005c857620005c7620006eb565b5b601f19601f8301169050602081019050919050565b6000620005ea8262000630565b9050919050565b6000819050919050565b60006200060882620005dd565b9050919050565b60006200061c82620005dd565b9050919050565b600081600b0b9050919050565b600073ffffffffffffffffffffffffffffffffffffffff82169050919050565b60005b838110156200067057808201518184015260208101905062000653565b8381111562000680576000848401525b50505050565b600060028204905060018216806200069f57607f821691505b60208210811415620006b657620006b5620006bc565b5b50919050565b7f4e487b7100000000000000000000000000000000000000000000000000000000600052602260045260246000fd5b7f4e487b7100000000000000000000000000000000000000000000000000000000600052604160045260246000fd5b6200072581620005dd565b81146200073157600080fd5b50565b6200073f81620005fb565b81146200074b57600080fd5b50565b62000759816200060f565b81146200076557600080fd5b50565b620007738162000623565b81146200077f57600080fd5b50565b61225d80620007926000396000f3fe608060405234801561001057600080fd5b50600436106101005760003560e01c8063b914616111610097578063d3112b2e11610066578063d3112b2e14610243578063f7260d3e14610262578063fc0c546a14610280578063ffe5c5521461029e57610100565b8063b9146161146101cf578063c47f0027146101ed578063ca13bf6514610209578063cca3a90e1461022757610100565b80635a096b2f116100d35780635a096b2f1461017b5780639dad93821461019f578063b6b55f25146101a9578063b87fe774146101c557610100565b806302fb0c5e1461010557806306fdde031461012357806312065fe0146101415780632e1a7d4d1461015f575b600080fd5b61010d6102a8565b60405161011a9190611c71565b60405180910390f35b61012b6102bb565b6040516101389190611e3c565b60405180910390f35b610149610349565b6040516101569190611efe565b60405180910390f35b6101796004803603810190610174919061193a565b6103fa565b005b6101836105dd565b6040516101969796959493929190611dc6565b60405180910390f35b6101a76107ed565b005b6101c360048036038101906101be919061193a565b6109c9565b005b6101cd610b1b565b005b6101d7610c0e565b6040516101e49190611efe565b60405180910390f35b610207600480360381019061020291906118f5565b610ce7565b005b610211610cfd565b60405161021e9190611dab565b60405180910390f35b610241600480360381019061023c919061184f565b610d0e565b005b61024b610e49565b604051610259929190611d82565b60405180910390f35b61026a610e9b565b6040516102779190611bf6565b60405180910390f35b610288610ec1565b6040516102959190611ccf565b60405180910390f35b6102a6610ee7565b005b600160149054906101000a900460ff1681565b600280546102c8906120fb565b80601f01602080910402602001604051908101604052809291908181526020018280546102f4906120fb565b80156103415780601f1061031657610100808354040283529160200191610341565b820191906000526020600020905b81548152906001019060200180831161032457829003601f168201915b505050505081565b600080600c9054906101000a900473ffffffffffffffffffffffffffffffffffffffff1673ffffffffffffffffffffffffffffffffffffffff166370a08231306040518263ffffffff1660e01b81526004016103a59190611bf6565b60206040518083038186803b1580156103bd57600080fd5b505afa1580156103d1573d6000803e3d6000fd5b505050506040513d601f19601f820116820180604052508101906103f59190611963565b905090565b806000600c9054906101000a900473ffffffffffffffffffffffffffffffffffffffff1673ffffffffffffffffffffffffffffffffffffffff166370a08231306040518263ffffffff1660e01b81526004016104569190611bf6565b60206040518083038186803b15801561046e57600080fd5b505afa158015610482573d6000803e3d6000fd5b505050506040513d601f19601f820116820180604052508101906104a69190611963565b10156104e7576040517f08c379a00000000000000000000000000000000000000000000000000000000081526004016104de90611ede565b60405180910390fd5b600080600c9054906101000a900473ffffffffffffffffffffffffffffffffffffffff1673ffffffffffffffffffffffffffffffffffffffff1663a9059cbb33846040518363ffffffff1660e01b8152600401610545929190611c48565b602060405180830381600087803b15801561055f57600080fd5b505af1158015610573573d6000803e3d6000fd5b505050506040513d601f19601f82011682018060405250810190610597919061188b565b9050806105d9576040517f08c379a00000000000000000000000000000000000000000000000000000000081526004016105d090611ebe565b60405180910390fd5b5050565b600080600080606060008060008054906101000a9004600b0b6000600c9054906101000a900473ffffffffffffffffffffffffffffffffffffffff16600160009054906101000a900473ffffffffffffffffffffffffffffffffffffffff16600160149054906101000a900460ff1660023073ffffffffffffffffffffffffffffffffffffffff166312065fe06040518163ffffffff1660e01b815260040160206040518083038186803b15801561069457600080fd5b505afa1580156106a8573d6000803e3d6000fd5b505050506040513d601f19601f820116820180604052508101906106cc9190611963565b3073ffffffffffffffffffffffffffffffffffffffff1663b91461616040518163ffffffff1660e01b815260040160206040518083038186803b15801561071257600080fd5b505afa158015610726573d6000803e3d6000fd5b505050506040513d601f19601f8201168201806040525081019061074a9190611963565b828054610756906120fb565b80601f0160208091040260200160405190810160405280929190818152602001828054610782906120fb565b80156107cf5780601f106107a4576101008083540402835291602001916107cf565b820191906000526020600020905b8154815290600101906020018083116107b257829003601f168201915b50505050509250965096509650965096509650965090919293949596565b600360009054906101000a900473ffffffffffffffffffffffffffffffffffffffff1673ffffffffffffffffffffffffffffffffffffffff163373ffffffffffffffffffffffffffffffffffffffff161461084757600080fd5b60011515600160149054906101000a900460ff1615151461089d576040517f08c379a000000000000000000000000000000000000000000000000000000000815260040161089490611e9e565b60405180910390fd5b6108f933600160009054906101000a900473ffffffffffffffffffffffffffffffffffffffff166000600c9054906101000a900473ffffffffffffffffffffffffffffffffffffffff166004611124909392919063ffffffff16565b6109ac6000600c9054906101000a900473ffffffffffffffffffffffffffffffffffffffff1673ffffffffffffffffffffffffffffffffffffffff166370a08231306040518263ffffffff1660e01b81526004016109579190611bf6565b60206040518083038186803b15801561096f57600080fd5b505afa158015610983573d6000803e3d6000fd5b505050506040513d601f19601f820116820180604052508101906109a79190611963565b6103fa565b6000600160146101000a81548160ff021916908315150217905550565b600360009054906101000a900473ffffffffffffffffffffffffffffffffffffffff1673ffffffffffffffffffffffffffffffffffffffff163373ffffffffffffffffffffffffffffffffffffffff1614610a2357600080fd5b600080600c9054906101000a900473ffffffffffffffffffffffffffffffffffffffff1673ffffffffffffffffffffffffffffffffffffffff166323b872dd3330856040518463ffffffff1660e01b8152600401610a8393929190611c11565b602060405180830381600087803b158015610a9d57600080fd5b505af1158015610ab1573d6000803e3d6000fd5b505050506040513d601f19601f82011682018060405250810190610ad5919061188b565b905080610b17576040517f08c379a0000000000000000000000000000000000000000000000000000000008152600401610b0e90611ebe565b60405180910390fd5b5050565b600360009054906101000a900473ffffffffffffffffffffffffffffffffffffffff1673ffffffffffffffffffffffffffffffffffffffff163373ffffffffffffffffffffffffffffffffffffffff1614610b7557600080fd5b60011515600160149054906101000a900460ff16151514610b9557600080fd5b6000600160146101000a81548160ff021916908315150217905550610c0c33600160009054906101000a900473ffffffffffffffffffffffffffffffffffffffff166000600c9054906101000a900473ffffffffffffffffffffffffffffffffffffffff166004611124909392919063ffffffff16565b565b60008060009054906101000a9004600b0b6bffffffffffffffffffffffff166000600c9054906101000a900473ffffffffffffffffffffffffffffffffffffffff1673ffffffffffffffffffffffffffffffffffffffff166370a08231306040518263ffffffff1660e01b8152600401610c889190611bf6565b60206040518083038186803b158015610ca057600080fd5b505afa158015610cb4573d6000803e3d6000fd5b505050506040513d601f19601f82011682018060405250810190610cd89190611963565b610ce29190611fb2565b905090565b818160029190610cf8929190611691565b505050565b60008054906101000a9004600b0b81565b600360009054906101000a900473ffffffffffffffffffffffffffffffffffffffff1673ffffffffffffffffffffffffffffffffffffffff163373ffffffffffffffffffffffffffffffffffffffff1614610d6857600080fd5b81600160006101000a81548173ffffffffffffffffffffffffffffffffffffffff021916908373ffffffffffffffffffffffffffffffffffffffff160217905550806000806101000a8154816bffffffffffffffffffffffff0219169083600b0b6bffffffffffffffffffffffff160217905550610e45600160009054906101000a900473ffffffffffffffffffffffffffffffffffffffff166000600c9054906101000a900473ffffffffffffffffffffffffffffffffffffffff1660008054906101000a9004600b0b60046112f3909392919063ffffffff16565b5050565b60048060000160009054906101000a900473ffffffffffffffffffffffffffffffffffffffff16908060010160009054906101000a900473ffffffffffffffffffffffffffffffffffffffff16905082565b600160009054906101000a900473ffffffffffffffffffffffffffffffffffffffff1681565b6000600c9054906101000a900473ffffffffffffffffffffffffffffffffffffffff1681565b600360009054906101000a900473ffffffffffffffffffffffffffffffffffffffff1673ffffffffffffffffffffffffffffffffffffffff163373ffffffffffffffffffffffffffffffffffffffff1614610f4157600080fd5b60001515600160149054906101000a900460ff16151514610f97576040517f08c379a0000000000000000000000000000000000000000000000000000000008152600401610f8e90611e5e565b60405180910390fd5b60018060146101000a81548160ff02191690831515021790555060008054906101000a9004600b0b6bffffffffffffffffffffffff166000600c9054906101000a900473ffffffffffffffffffffffffffffffffffffffff1673ffffffffffffffffffffffffffffffffffffffff166370a08231306040518263ffffffff1660e01b81526004016110289190611bf6565b60206040518083038186803b15801561104057600080fd5b505afa158015611054573d6000803e3d6000fd5b505050506040513d601f19601f820116820180604052508101906110789190611963565b10156110b9576040517f08c379a00000000000000000000000000000000000000000000000000000000081526004016110b090611e7e565b60405180910390fd5b611122600160009054906101000a900473ffffffffffffffffffffffffffffffffffffffff166000600c9054906101000a900473ffffffffffffffffffffffffffffffffffffffff1660008054906101000a9004600b0b60046114c2909392919063ffffffff16565b565b8360000160009054906101000a900473ffffffffffffffffffffffffffffffffffffffff1673ffffffffffffffffffffffffffffffffffffffff166339255d5b8560010160009054906101000a900473ffffffffffffffffffffffffffffffffffffffff1663b4b333c660e01b848787600067ffffffffffffffff8111156111d5577f4e487b7100000000000000000000000000000000000000000000000000000000600052604160045260246000fd5b6040519080825280601f01601f1916602001820160405280156112075781602001600182028036833780820191505090505b5060405160240161121b9493929190611cea565b604051602081830303815290604052907bffffffffffffffffffffffffffffffffffffffffffffffffffffffff19166020820180517bffffffffffffffffffffffffffffffffffffffffffffffffffffffff83818316178352505050506040518363ffffffff1660e01b8152600401611295929190611c8c565b600060405180830381600087803b1580156112af57600080fd5b505af11580156112c3573d6000803e3d6000fd5b505050506040513d6000823e3d601f19601f820116820180604052508101906112ec91906118b4565b5050505050565b8360000160009054906101000a900473ffffffffffffffffffffffffffffffffffffffff1673ffffffffffffffffffffffffffffffffffffffff166339255d5b8560010160009054906101000a900473ffffffffffffffffffffffffffffffffffffffff166350209a6260e01b858786600067ffffffffffffffff8111156113a4577f4e487b7100000000000000000000000000000000000000000000000000000000600052604160045260246000fd5b6040519080825280601f01601f1916602001820160405280156113d65781602001600182028036833780820191505090505b506040516024016113ea9493929190611d36565b604051602081830303815290604052907bffffffffffffffffffffffffffffffffffffffffffffffffffffffff19166020820180517bffffffffffffffffffffffffffffffffffffffffffffffffffffffff83818316178352505050506040518363ffffffff1660e01b8152600401611464929190611c8c565b600060405180830381600087803b15801561147e57600080fd5b505af1158015611492573d6000803e3d6000fd5b505050506040513d6000823e3d601f19601f820116820180604052508101906114bb91906118b4565b5050505050565b8360000160009054906101000a900473ffffffffffffffffffffffffffffffffffffffff1673ffffffffffffffffffffffffffffffffffffffff166339255d5b8560010160009054906101000a900473ffffffffffffffffffffffffffffffffffffffff166362fc305e60e01b858786600067ffffffffffffffff811115611573577f4e487b7100000000000000000000000000000000000000000000000000000000600052604160045260246000fd5b6040519080825280601f01601f1916602001820160405280156115a55781602001600182028036833780820191505090505b506040516024016115b99493929190611d36565b604051602081830303815290604052907bffffffffffffffffffffffffffffffffffffffffffffffffffffffff19166020820180517bffffffffffffffffffffffffffffffffffffffffffffffffffffffff83818316178352505050506040518363ffffffff1660e01b8152600401611633929190611c8c565b600060405180830381600087803b15801561164d57600080fd5b505af1158015611661573d6000803e3d6000fd5b505050506040513d6000823e3d601f19601f8201168201806040525081019061168a91906118b4565b5050505050565b82805461169d906120fb565b90600052602060002090601f0160209004810192826116bf5760008555611706565b82601f106116d857803560ff1916838001178555611706565b82800160010185558215611706579182015b828111156117055782358255916020019190600101906116ea565b5b5090506117139190611717565b5090565b5b80821115611730576000816000905550600101611718565b5090565b600061174761174284611f4a565b611f19565b90508281526020810184848401111561175f57600080fd5b61176a8482856120c8565b509392505050565b600081359050611781816121cb565b92915050565b600081519050611796816121e2565b92915050565b600082601f8301126117ad57600080fd5b81516117bd848260208601611734565b91505092915050565b6000813590506117d5816121f9565b92915050565b60008083601f8401126117ed57600080fd5b8235905067ffffffffffffffff81111561180657600080fd5b60208301915083600182028301111561181e57600080fd5b9250929050565b60008135905061183481612210565b92915050565b60008151905061184981612210565b92915050565b6000806040838503121561186257600080fd5b600061187085828601611772565b9250506020611881858286016117c6565b9150509250929050565b60006020828403121561189d57600080fd5b60006118ab84828501611787565b91505092915050565b6000602082840312156118c657600080fd5b600082015167ffffffffffffffff8111156118e057600080fd5b6118ec8482850161179c565b91505092915050565b6000806020838503121561190857600080fd5b600083013567ffffffffffffffff81111561192257600080fd5b61192e858286016117db565b92509250509250929050565b60006020828403121561194c57600080fd5b600061195a84828501611825565b91505092915050565b60006020828403121561197557600080fd5b60006119838482850161183a565b91505092915050565b61199581611fe3565b82525050565b6119a481611ff5565b82525050565b60006119b582611f7a565b6119bf8185611f90565b93506119cf8185602086016120c8565b6119d8816121ba565b840191505092915050565b6119ec81612038565b82525050565b6119fb8161205c565b82525050565b611a0a81612080565b82525050565b611a19816120a4565b82525050565b611a2881612001565b82525050565b6000611a3982611f85565b611a438185611fa1565b9350611a538185602086016120c8565b611a5c816121ba565b840191505092915050565b6000611a74601883611fa1565b91507f612073747265616d20697320616c7265616479206f70656e00000000000000006000830152602082019050919050565b6000611ab4600283611f90565b91507f30780000000000000000000000000000000000000000000000000000000000006000830152602082019050919050565b6000611af4601d83611fa1565b91507f4e6f7420656e6f7567682062616c616e6365206465706f73697465642e0000006000830152602082019050919050565b6000611b34601683611fa1565b91507f7468652073747265616d206973206e6f74206f70656e000000000000000000006000830152602082019050919050565b6000611b74601683611fa1565b91507f546f6b656e207472616e73666572206661696c65642e000000000000000000006000830152602082019050919050565b6000611bb4601383611fa1565b91507f496e73756666696369656e742066756e64732e000000000000000000000000006000830152602082019050919050565b611bf08161202e565b82525050565b6000602082019050611c0b600083018461198c565b92915050565b6000606082019050611c26600083018661198c565b611c33602083018561198c565b611c406040830184611be7565b949350505050565b6000604082019050611c5d600083018561198c565b611c6a6020830184611be7565b9392505050565b6000602082019050611c86600083018461199b565b92915050565b6000606082019050611ca160008301856119e3565b8181036020830152611cb381846119aa565b90508181036040830152611cc681611aa7565b90509392505050565b6000602082019050611ce460008301846119f2565b92915050565b6000608082019050611cff6000830187611a01565b611d0c602083018661198c565b611d19604083018561198c565b8181036060830152611d2b81846119aa565b905095945050505050565b6000608082019050611d4b6000830187611a01565b611d58602083018661198c565b611d656040830185611a1f565b8181036060830152611d7781846119aa565b905095945050505050565b6000604082019050611d976000830185611a10565b611da460208301846119e3565b9392505050565b6000602082019050611dc06000830184611a1f565b92915050565b600060e082019050611ddb600083018a611a1f565b611de860208301896119f2565b611df5604083018861198c565b611e02606083018761199b565b8181036080830152611e148186611a2e565b9050611e2360a0830185611be7565b611e3060c0830184611be7565b98975050505050505050565b60006020820190508181036000830152611e568184611a2e565b905092915050565b60006020820190508181036000830152611e7781611a67565b9050919050565b60006020820190508181036000830152611e9781611ae7565b9050919050565b60006020820190508181036000830152611eb781611b27565b9050919050565b60006020820190508181036000830152611ed781611b67565b9050919050565b60006020820190508181036000830152611ef781611ba7565b9050919050565b6000602082019050611f136000830184611be7565b92915050565b6000604051905081810181811067ffffffffffffffff82111715611f4057611f3f61218b565b5b8060405250919050565b600067ffffffffffffffff821115611f6557611f6461218b565b5b601f19601f8301169050602081019050919050565b600081519050919050565b600081519050919050565b600082825260208201905092915050565b600082825260208201905092915050565b6000611fbd8261202e565b9150611fc88361202e565b925082611fd857611fd761212d565b5b828204905092915050565b6000611fee8261200e565b9050919050565b60008115159050919050565b600081600b0b9050919050565b600073ffffffffffffffffffffffffffffffffffffffff82169050919050565b6000819050919050565b60006120438261204a565b9050919050565b60006120558261200e565b9050919050565b60006120678261206e565b9050919050565b60006120798261200e565b9050919050565b600061208b82612092565b9050919050565b600061209d8261200e565b9050919050565b60006120af826120b6565b9050919050565b60006120c18261200e565b9050919050565b60005b838110156120e65780820151818401526020810190506120cb565b838111156120f5576000848401525b50505050565b6000600282049050600182168061211357607f821691505b602082108114156121275761212661215c565b5b50919050565b7f4e487b7100000000000000000000000000000000000000000000000000000000600052601260045260246000fd5b7f4e487b7100000000000000000000000000000000000000000000000000000000600052602260045260246000fd5b7f4e487b7100000000000000000000000000000000000000000000000000000000600052604160045260246000fd5b6000601f19601f8301169050919050565b6121d481611fe3565b81146121df57600080fd5b50565b6121eb81611ff5565b81146121f657600080fd5b50565b61220281612001565b811461220d57600080fd5b50565b6122198161202e565b811461222457600080fd5b5056fea26469706673582212206a5491999b82a47319233b792d2536be71bd630226c3fe7776041c6c675512f364736f6c63430008000033a2646970667358221220a73181687532fd739bda5d12b747f26c7413f342d8deb331cdad5439a74f25bd64736f6c63430008000033",
  "linkReferences": {},
  "deployedLinkReferences": {}
}