{
  "_format": "hh-sol-artifact-1",
  "contractName": "ControllerFactory",
  "sourceName": "contracts/interfaces/ControllerFactory.sol",
  "abi": [
    {
      "anonymous": false,
      "inputs": [
        {
          "indexed": false,
          "internalType": "address",
          "name": "controller",
          "type": "address"
        },
        {
          "indexed": false,
          "internalType": "address",
          "name": "owner",
          "type": "address"
        }
      ],
      "name": "newController",
      "type": "event"
    },
    {
      "inputs": [],
      "name": "deployController",
      "outputs": [],
      "stateMutability": "nonpayable",
      "type": "function"
    }
  ],
  "bytecode": "0x608060405234801561001057600080fd5b5061289a806100206000396000f3fe608060405234801561001057600080fd5b506004361061002b5760003560e01c80637cc9788e14610030575b600080fd5b61003861003a565b005b600073ffffffffffffffffffffffffffffffffffffffff166000803373ffffffffffffffffffffffffffffffffffffffff1673ffffffffffffffffffffffffffffffffffffffff16815260200190815260200160002060009054906101000a900473ffffffffffffffffffffffffffffffffffffffff1673ffffffffffffffffffffffffffffffffffffffff1614610107576040517f08c379a00000000000000000000000000000000000000000000000000000000081526004016100fe9061027d565b60405180910390fd5b600033604051610116906101dd565b6101209190610239565b604051809103906000f08015801561013c573d6000803e3d6000fd5b5090508073ffffffffffffffffffffffffffffffffffffffff166000803373ffffffffffffffffffffffffffffffffffffffff1673ffffffffffffffffffffffffffffffffffffffff16815260200190815260200160002060009054906101000a905050507f4e86881fac0380386a30750e414f06a5314c48d4c8a8f08df75d0dca4f66c1f081336040516101d2929190610254565b60405180910390a150565b612584806102e183390190565b6101f3816102ae565b82525050565b6000610206601c8361029d565b91507f596f7520616c7265616479206f776e206120636f6e74726f6c6c6572000000006000830152602082019050919050565b600060208201905061024e60008301846101ea565b92915050565b600060408201905061026960008301856101ea565b61027660208301846101ea565b9392505050565b60006020820190508181036000830152610296816101f9565b9050919050565b600082825260208201905092915050565b60006102b9826102c0565b9050919050565b600073ffffffffffffffffffffffffffffffffffffffff8216905091905056fe608060405234801561001057600080fd5b506040516125843803806125848339818101604052810190610032919061008d565b806000806101000a81548173ffffffffffffffffffffffffffffffffffffffff021916908373ffffffffffffffffffffffffffffffffffffffff160217905550506100ff565b600081519050610087816100e8565b92915050565b60006020828403121561009f57600080fd5b60006100ad84828501610078565b91505092915050565b60006100c1826100c8565b9050919050565b600073ffffffffffffffffffffffffffffffffffffffff82169050919050565b6100f1816100b6565b81146100fc57600080fd5b50565b6124768061010e6000396000f3fe60806040523480156200001157600080fd5b50600436106200003a5760003560e01c80634cf81065146200003f578063962a4948146200005f575b600080fd5b6200005d6004803603810190620000579190620002af565b62000081565b005b62000069620001e3565b604051620000789190620003f9565b60405180910390f35b60008054906101000a900473ffffffffffffffffffffffffffffffffffffffff1673ffffffffffffffffffffffffffffffffffffffff163373ffffffffffffffffffffffffffffffffffffffff1614620000da57600080fd5b600083838360008054906101000a900473ffffffffffffffffffffffffffffffffffffffff166040516200010e9062000273565b6200011d94939291906200041d565b604051809103906000f0801580156200013a573d6000803e3d6000fd5b5090506001819080600181540180825580915050600190039060005260206000200160009091909190916101000a81548173ffffffffffffffffffffffffffffffffffffffff021916908373ffffffffffffffffffffffffffffffffffffffff1602179055507f75835076ca78be8e57b8f78fd8b69bb76bd5a0e897746c5664acbece3e4b9680818385604051620001d593929190620003bc565b60405180910390a150505050565b606060018054806020026020016040519081016040528092919081815260200182805480156200026957602002820191906000526020600020905b8160009054906101000a900473ffffffffffffffffffffffffffffffffffffffff1673ffffffffffffffffffffffffffffffffffffffff16815260200190600101908083116200021e575b5050505050905090565b611ed1806200057083390190565b60008135905062000292816200053b565b92915050565b600081359050620002a98162000555565b92915050565b600080600060608486031215620002c557600080fd5b6000620002d58682870162000298565b9350506020620002e88682870162000281565b9250506040620002fb8682870162000281565b9150509250925092565b6000620003138383620003ab565b60208301905092915050565b6200032a81620004a3565b82525050565b60006200033d826200047a565b62000349818562000492565b935062000356836200046a565b8060005b838110156200038d57815162000371888262000305565b97506200037e8362000485565b9250506001810190506200035a565b5085935050505092915050565b620003a581620004eb565b82525050565b620003b68162000513565b82525050565b6000606082019050620003d360008301866200031f565b620003e260208301856200031f565b620003f160408301846200031f565b949350505050565b6000602082019050818103600083015262000415818462000330565b905092915050565b60006080820190506200043460008301876200039a565b6200044360208301866200031f565b6200045260408301856200031f565b6200046160608301846200031f565b95945050505050565b6000819050602082019050919050565b600081519050919050565b6000602082019050919050565b600082825260208201905092915050565b6000620004b082620004cb565b9050919050565b6000620004c482620004a3565b9050919050565b600073ffffffffffffffffffffffffffffffffffffffff82169050919050565b6000620004f882620004ff565b9050919050565b60006200050c82620004cb565b9050919050565b6000620005208262000527565b9050919050565b60006200053482620004cb565b9050919050565b6200054681620004a3565b81146200055257600080fd5b50565b6200056081620004b7565b81146200056c57600080fd5b5056fe60806040523480156200001157600080fd5b5060405162001ed138038062001ed18339818101604052810190620000379190620002f7565b60405180604001604052808573ffffffffffffffffffffffffffffffffffffffff1681526020018573ffffffffffffffffffffffffffffffffffffffff1663b6d200de7fa9214cc96615e0085d3bb077758db69497dc2dce3b2b1e97bc93c3d18d83efd36040518263ffffffff1660e01b8152600401620000b9919062000374565b60206040518083038186803b158015620000d257600080fd5b505afa158015620000e7573d6000803e3d6000fd5b505050506040513d601f19601f820116820180604052508101906200010d9190620002cb565b73ffffffffffffffffffffffffffffffffffffffff16815250600360008201518160000160006101000a81548173ffffffffffffffffffffffffffffffffffffffff021916908373ffffffffffffffffffffffffffffffffffffffff16021790555060208201518160010160006101000a81548173ffffffffffffffffffffffffffffffffffffffff021916908373ffffffffffffffffffffffffffffffffffffffff16021790555090505082600160006101000a81548173ffffffffffffffffffffffffffffffffffffffff021916908373ffffffffffffffffffffffffffffffffffffffff160217905550816000600c6101000a81548173ffffffffffffffffffffffffffffffffffffffff021916908373ffffffffffffffffffffffffffffffffffffffff16021790555080600260006101000a81548173ffffffffffffffffffffffffffffffffffffffff021916908373ffffffffffffffffffffffffffffffffffffffff1602179055505050505062000445565b6000815190506200029781620003f7565b92915050565b600081519050620002ae8162000411565b92915050565b600081519050620002c5816200042b565b92915050565b600060208284031215620002de57600080fd5b6000620002ee848285016200029d565b91505092915050565b600080600080608085870312156200030e57600080fd5b60006200031e87828801620002b4565b9450506020620003318782880162000286565b9350506040620003448782880162000286565b9250506060620003578782880162000286565b91505092959194509250565b6200036e81620003a5565b82525050565b60006020820190506200038b600083018462000363565b92915050565b60006200039e82620003d7565b9050919050565b6000819050919050565b6000620003bc8262000391565b9050919050565b6000620003d08262000391565b9050919050565b600073ffffffffffffffffffffffffffffffffffffffff82169050919050565b620004028162000391565b81146200040e57600080fd5b50565b6200041c81620003af565b81146200042857600080fd5b50565b6200043681620003c3565b81146200044257600080fd5b50565b611a7c80620004556000396000f3fe608060405234801561001057600080fd5b50600436106100885760003560e01c80639dad93821161005b5780639dad938214610104578063b91461611461010e578063d3112b2e1461012c578063decef5731461014b57610088565b806312065fe01461008d5780632484ea2f146100ab5780632e1a7d4d146100c757806394aef022146100e3575b600080fd5b610095610167565b6040516100a29190611789565b60405180910390f35b6100c560048036038101906100c091906112b3565b610218565b005b6100e160048036038101906100dc919061136c565b610448565b005b6100eb61062b565b6040516100fb9493929190611704565b60405180910390f35b61010c610740565b005b6101166108ab565b6040516101239190611789565b60405180910390f35b610134610984565b6040516101429291906116db565b60405180910390f35b610165600480360381019061016091906113be565b6109d6565b005b600080600c9054906101000a900473ffffffffffffffffffffffffffffffffffffffff1673ffffffffffffffffffffffffffffffffffffffff166370a08231306040518263ffffffff1660e01b81526004016101c3919061155c565b60206040518083038186803b1580156101db57600080fd5b505afa1580156101ef573d6000803e3d6000fd5b505050506040513d601f19601f820116820180604052508101906102139190611395565b905090565b600260009054906101000a900473ffffffffffffffffffffffffffffffffffffffff1673ffffffffffffffffffffffffffffffffffffffff163373ffffffffffffffffffffffffffffffffffffffff161461027257600080fd5b6103256000600c9054906101000a900473ffffffffffffffffffffffffffffffffffffffff1673ffffffffffffffffffffffffffffffffffffffff166370a08231306040518263ffffffff1660e01b81526004016102d0919061155c565b60206040518083038186803b1580156102e857600080fd5b505afa1580156102fc573d6000803e3d6000fd5b505050506040513d601f19601f820116820180604052508101906103209190611395565b610448565b82600160006101000a81548173ffffffffffffffffffffffffffffffffffffffff021916908373ffffffffffffffffffffffffffffffffffffffff160217905550816000600c6101000a81548173ffffffffffffffffffffffffffffffffffffffff021916908373ffffffffffffffffffffffffffffffffffffffff160217905550806000806101000a8154816bffffffffffffffffffffffff0219169083600b0b6bffffffffffffffffffffffff160217905550610443600160009054906101000a900473ffffffffffffffffffffffffffffffffffffffff166000600c9054906101000a900473ffffffffffffffffffffffffffffffffffffffff1660008054906101000a9004600b0b6003610c75909392919063ffffffff16565b505050565b806000600c9054906101000a900473ffffffffffffffffffffffffffffffffffffffff1673ffffffffffffffffffffffffffffffffffffffff166370a08231306040518263ffffffff1660e01b81526004016104a4919061155c565b60206040518083038186803b1580156104bc57600080fd5b505afa1580156104d0573d6000803e3d6000fd5b505050506040513d601f19601f820116820180604052508101906104f49190611395565b1015610535576040517f08c379a000000000000000000000000000000000000000000000000000000000815260040161052c90611769565b60405180910390fd5b600080600c9054906101000a900473ffffffffffffffffffffffffffffffffffffffff1673ffffffffffffffffffffffffffffffffffffffff1663a9059cbb33846040518363ffffffff1660e01b81526004016105939291906115d7565b602060405180830381600087803b1580156105ad57600080fd5b505af11580156105c1573d6000803e3d6000fd5b505050506040513d601f19601f820116820180604052508101906105e59190611302565b905080610627576040517f08c379a000000000000000000000000000000000000000000000000000000000815260040161061e90611749565b60405180910390fd5b5050565b60008060008060008054906101000a9004600b0b6000600c9054906101000a900473ffffffffffffffffffffffffffffffffffffffff16600160009054906101000a900473ffffffffffffffffffffffffffffffffffffffff166000600c9054906101000a900473ffffffffffffffffffffffffffffffffffffffff1673ffffffffffffffffffffffffffffffffffffffff1663dd62ed3e33306040518363ffffffff1660e01b81526004016106e2929190611577565b60206040518083038186803b1580156106fa57600080fd5b505afa15801561070e573d6000803e3d6000fd5b505050506040513d601f19601f820116820180604052508101906107329190611395565b935093509350935090919293565b600260009054906101000a900473ffffffffffffffffffffffffffffffffffffffff1673ffffffffffffffffffffffffffffffffffffffff163373ffffffffffffffffffffffffffffffffffffffff161461079a57600080fd5b6107f633600160009054906101000a900473ffffffffffffffffffffffffffffffffffffffff166000600c9054906101000a900473ffffffffffffffffffffffffffffffffffffffff166003610e44909392919063ffffffff16565b6108a96000600c9054906101000a900473ffffffffffffffffffffffffffffffffffffffff1673ffffffffffffffffffffffffffffffffffffffff166370a08231306040518263ffffffff1660e01b8152600401610854919061155c565b60206040518083038186803b15801561086c57600080fd5b505afa158015610880573d6000803e3d6000fd5b505050506040513d601f19601f820116820180604052508101906108a49190611395565b610448565b565b60008060009054906101000a9004600b0b6bffffffffffffffffffffffff166000600c9054906101000a900473ffffffffffffffffffffffffffffffffffffffff1673ffffffffffffffffffffffffffffffffffffffff166370a08231306040518263ffffffff1660e01b8152600401610925919061155c565b60206040518083038186803b15801561093d57600080fd5b505afa158015610951573d6000803e3d6000fd5b505050506040513d601f19601f820116820180604052508101906109759190611395565b61097f9190611832565b905090565b60038060000160009054906101000a900473ffffffffffffffffffffffffffffffffffffffff16908060010160009054906101000a900473ffffffffffffffffffffffffffffffffffffffff16905082565b600260009054906101000a900473ffffffffffffffffffffffffffffffffffffffff1673ffffffffffffffffffffffffffffffffffffffff163373ffffffffffffffffffffffffffffffffffffffff1614610a3057600080fd5b6000600c9054906101000a900473ffffffffffffffffffffffffffffffffffffffff1673ffffffffffffffffffffffffffffffffffffffff1663095ea7b330846040518363ffffffff1660e01b8152600401610a8d9291906115d7565b602060405180830381600087803b158015610aa757600080fd5b505af1158015610abb573d6000803e3d6000fd5b505050506040513d601f19601f82011682018060405250810190610adf9190611302565b50600080600c9054906101000a900473ffffffffffffffffffffffffffffffffffffffff1673ffffffffffffffffffffffffffffffffffffffff166323b872dd3330866040518463ffffffff1660e01b8152600401610b40939291906115a0565b602060405180830381600087803b158015610b5a57600080fd5b505af1158015610b6e573d6000803e3d6000fd5b505050506040513d601f19601f82011682018060405250810190610b929190611302565b905080610bd4576040517f08c379a0000000000000000000000000000000000000000000000000000000008152600401610bcb90611749565b60405180910390fd5b816000806101000a8154816bffffffffffffffffffffffff0219169083600b0b6bffffffffffffffffffffffff160217905550610c70600160009054906101000a900473ffffffffffffffffffffffffffffffffffffffff166000600c9054906101000a900473ffffffffffffffffffffffffffffffffffffffff1660008054906101000a9004600b0b6003611013909392919063ffffffff16565b505050565b8360000160009054906101000a900473ffffffffffffffffffffffffffffffffffffffff1673ffffffffffffffffffffffffffffffffffffffff166339255d5b8560010160009054906101000a900473ffffffffffffffffffffffffffffffffffffffff166350209a6260e01b858786600067ffffffffffffffff811115610d26577f4e487b7100000000000000000000000000000000000000000000000000000000600052604160045260246000fd5b6040519080825280601f01601f191660200182016040528015610d585781602001600182028036833780820191505090505b50604051602401610d6c949392919061168f565b604051602081830303815290604052907bffffffffffffffffffffffffffffffffffffffffffffffffffffffff19166020820180517bffffffffffffffffffffffffffffffffffffffffffffffffffffffff83818316178352505050506040518363ffffffff1660e01b8152600401610de6929190611600565b600060405180830381600087803b158015610e0057600080fd5b505af1158015610e14573d6000803e3d6000fd5b505050506040513d6000823e3d601f19601f82011682018060405250810190610e3d919061132b565b5050505050565b8360000160009054906101000a900473ffffffffffffffffffffffffffffffffffffffff1673ffffffffffffffffffffffffffffffffffffffff166339255d5b8560010160009054906101000a900473ffffffffffffffffffffffffffffffffffffffff1663b4b333c660e01b848787600067ffffffffffffffff811115610ef5577f4e487b7100000000000000000000000000000000000000000000000000000000600052604160045260246000fd5b6040519080825280601f01601f191660200182016040528015610f275781602001600182028036833780820191505090505b50604051602401610f3b9493929190611643565b604051602081830303815290604052907bffffffffffffffffffffffffffffffffffffffffffffffffffffffff19166020820180517bffffffffffffffffffffffffffffffffffffffffffffffffffffffff83818316178352505050506040518363ffffffff1660e01b8152600401610fb5929190611600565b600060405180830381600087803b158015610fcf57600080fd5b505af1158015610fe3573d6000803e3d6000fd5b505050506040513d6000823e3d601f19601f8201168201806040525081019061100c919061132b565b5050505050565b8360000160009054906101000a900473ffffffffffffffffffffffffffffffffffffffff1673ffffffffffffffffffffffffffffffffffffffff166339255d5b8560010160009054906101000a900473ffffffffffffffffffffffffffffffffffffffff166362fc305e60e01b858786600067ffffffffffffffff8111156110c4577f4e487b7100000000000000000000000000000000000000000000000000000000600052604160045260246000fd5b6040519080825280601f01601f1916602001820160405280156110f65781602001600182028036833780820191505090505b5060405160240161110a949392919061168f565b604051602081830303815290604052907bffffffffffffffffffffffffffffffffffffffffffffffffffffffff19166020820180517bffffffffffffffffffffffffffffffffffffffffffffffffffffffff83818316178352505050506040518363ffffffff1660e01b8152600401611184929190611600565b600060405180830381600087803b15801561119e57600080fd5b505af11580156111b2573d6000803e3d6000fd5b505050506040513d6000823e3d601f19601f820116820180604052508101906111db919061132b565b5050505050565b60006111f56111f0846117d5565b6117a4565b90508281526020810184848401111561120d57600080fd5b611218848285611948565b509392505050565b60008135905061122f816119ea565b92915050565b60008151905061124481611a01565b92915050565b600082601f83011261125b57600080fd5b815161126b8482602086016111e2565b91505092915050565b60008135905061128381611a18565b92915050565b60008135905061129881611a2f565b92915050565b6000815190506112ad81611a2f565b92915050565b6000806000606084860312156112c857600080fd5b60006112d686828701611220565b93505060206112e786828701611220565b92505060406112f886828701611274565b9150509250925092565b60006020828403121561131457600080fd5b600061132284828501611235565b91505092915050565b60006020828403121561133d57600080fd5b600082015167ffffffffffffffff81111561135757600080fd5b6113638482850161124a565b91505092915050565b60006020828403121561137e57600080fd5b600061138c84828501611289565b91505092915050565b6000602082840312156113a757600080fd5b60006113b58482850161129e565b91505092915050565b600080604083850312156113d157600080fd5b60006113df85828601611289565b92505060206113f085828601611274565b9150509250929050565b61140381611863565b82525050565b600061141482611805565b61141e8185611810565b935061142e818560208601611948565b611437816119d9565b840191505092915050565b61144b816118b8565b82525050565b61145a816118dc565b82525050565b61146981611900565b82525050565b61147881611924565b82525050565b61148781611881565b82525050565b600061149a600283611810565b91507f30780000000000000000000000000000000000000000000000000000000000006000830152602082019050919050565b60006114da601683611821565b91507f546f6b656e207472616e73666572206661696c65642e000000000000000000006000830152602082019050919050565b600061151a601383611821565b91507f496e73756666696369656e742066756e64732e000000000000000000000000006000830152602082019050919050565b611556816118ae565b82525050565b600060208201905061157160008301846113fa565b92915050565b600060408201905061158c60008301856113fa565b61159960208301846113fa565b9392505050565b60006060820190506115b560008301866113fa565b6115c260208301856113fa565b6115cf604083018461154d565b949350505050565b60006040820190506115ec60008301856113fa565b6115f9602083018461154d565b9392505050565b60006060820190506116156000830185611442565b81810360208301526116278184611409565b9050818103604083015261163a8161148d565b90509392505050565b60006080820190506116586000830187611460565b61166560208301866113fa565b61167260408301856113fa565b81810360608301526116848184611409565b905095945050505050565b60006080820190506116a46000830187611460565b6116b160208301866113fa565b6116be604083018561147e565b81810360608301526116d08184611409565b905095945050505050565b60006040820190506116f0600083018561146f565b6116fd6020830184611442565b9392505050565b6000608082019050611719600083018761147e565b6117266020830186611451565b61173360408301856113fa565b611740606083018461154d565b95945050505050565b60006020820190508181036000830152611762816114cd565b9050919050565b600060208201905081810360008301526117828161150d565b9050919050565b600060208201905061179e600083018461154d565b92915050565b6000604051905081810181811067ffffffffffffffff821117156117cb576117ca6119aa565b5b8060405250919050565b600067ffffffffffffffff8211156117f0576117ef6119aa565b5b601f19601f8301169050602081019050919050565b600081519050919050565b600082825260208201905092915050565b600082825260208201905092915050565b600061183d826118ae565b9150611848836118ae565b9250826118585761185761197b565b5b828204905092915050565b600061186e8261188e565b9050919050565b60008115159050919050565b600081600b0b9050919050565b600073ffffffffffffffffffffffffffffffffffffffff82169050919050565b6000819050919050565b60006118c3826118ca565b9050919050565b60006118d58261188e565b9050919050565b60006118e7826118ee565b9050919050565b60006118f98261188e565b9050919050565b600061190b82611912565b9050919050565b600061191d8261188e565b9050919050565b600061192f82611936565b9050919050565b60006119418261188e565b9050919050565b60005b8381101561196657808201518184015260208101905061194b565b83811115611975576000848401525b50505050565b7f4e487b7100000000000000000000000000000000000000000000000000000000600052601260045260246000fd5b7f4e487b7100000000000000000000000000000000000000000000000000000000600052604160045260246000fd5b6000601f19601f8301169050919050565b6119f381611863565b81146119fe57600080fd5b50565b611a0a81611875565b8114611a1557600080fd5b50565b611a2181611881565b8114611a2c57600080fd5b50565b611a38816118ae565b8114611a4357600080fd5b5056fea26469706673582212200053be9b8fcd147bab456d5117e0eb8f9b657c4b4afd1902d9b9595ab363fb4c64736f6c63430008000033a2646970667358221220fbe3d8ae607dfe01492e8a66e392206092301745659caa835f8314dc97e26b4464736f6c63430008000033a2646970667358221220bae791f1a479a87fa5585f617427068a52cb8652b5c8f0356152c85c682559ed64736f6c63430008000033",
  "linkReferences": {},
  "deployedLinkReferences": {}
}