{
  "_format": "hh-sol-artifact-1",
  "contractName": "Controller",
  "sourceName": "contracts/interfaces/Controller.sol",
  "abi": [
    {
      "anonymous": false,
      "inputs": [
        {
          "indexed": true,
          "internalType": "address",
          "name": "previousOwner",
          "type": "address"
        },
        {
          "indexed": true,
          "internalType": "address",
          "name": "newOwner",
          "type": "address"
        }
      ],
      "name": "OwnershipTransferred",
      "type": "event"
    },
    {
      "anonymous": false,
      "inputs": [
        {
          "indexed": false,
          "internalType": "address",
          "name": "streamAddress",
          "type": "address"
        },
        {
          "indexed": false,
          "internalType": "address",
          "name": "token",
          "type": "address"
        },
        {
          "indexed": false,
          "internalType": "address",
          "name": "receiver",
          "type": "address"
        }
      ],
      "name": "newStream",
      "type": "event"
    },
    {
      "inputs": [
        {
          "internalType": "contract ISuperfluid",
          "name": "host",
          "type": "address"
        },
        {
          "internalType": "address",
          "name": "_receiver",
          "type": "address"
        },
        {
          "internalType": "address",
          "name": "_token",
          "type": "address"
        }
      ],
      "name": "createNewStream",
      "outputs": [],
      "stateMutability": "nonpayable",
      "type": "function"
    },
    {
      "inputs": [],
      "name": "owner",
      "outputs": [
        {
          "internalType": "address",
          "name": "",
          "type": "address"
        }
      ],
      "stateMutability": "view",
      "type": "function"
    },
    {
      "inputs": [],
      "name": "renounceOwnership",
      "outputs": [],
      "stateMutability": "nonpayable",
      "type": "function"
    },
    {
      "inputs": [
        {
          "internalType": "address",
          "name": "newOwner",
          "type": "address"
        }
      ],
      "name": "transferOwnership",
      "outputs": [],
      "stateMutability": "nonpayable",
      "type": "function"
    }
  ],
  "bytecode": "0x608060405234801561001057600080fd5b5061002d61002261003260201b60201c565b61003a60201b60201c565b6100fe565b600033905090565b60008060009054906101000a900473ffffffffffffffffffffffffffffffffffffffff169050816000806101000a81548173ffffffffffffffffffffffffffffffffffffffff021916908373ffffffffffffffffffffffffffffffffffffffff1602179055508173ffffffffffffffffffffffffffffffffffffffff168173ffffffffffffffffffffffffffffffffffffffff167f8be0079c531659141344cd1fd0a4f28419497f9722a3daafe3b4186f6b6457e060405160405180910390a35050565b6128598061010d6000396000f3fe60806040523480156200001157600080fd5b5060043610620000525760003560e01c80634cf810651462000057578063715018a614620000775780638da5cb5b1462000083578063f2fde38b14620000a5575b600080fd5b6200007560048036038101906200006f919062000521565b620000c5565b005b620000816200022f565b005b6200008d620002c0565b6040516200009c919062000643565b60405180910390f35b620000c36004803603810190620000bd9190620004f5565b620002e9565b005b620000cf620003ed565b73ffffffffffffffffffffffffffffffffffffffff16620000ef620002c0565b73ffffffffffffffffffffffffffffffffffffffff161462000148576040517f08c379a00000000000000000000000000000000000000000000000000000000081526004016200013f90620006fc565b60405180910390fd5b60008383836040516200015b90620004b9565b62000169939291906200069d565b604051809103906000f08015801562000186573d6000803e3d6000fd5b5090506001819080600181540180825580915050600190039060005260206000200160009091909190916101000a81548173ffffffffffffffffffffffffffffffffffffffff021916908373ffffffffffffffffffffffffffffffffffffffff1602179055507f75835076ca78be8e57b8f78fd8b69bb76bd5a0e897746c5664acbece3e4b9680818385604051620002219392919062000660565b60405180910390a150505050565b62000239620003ed565b73ffffffffffffffffffffffffffffffffffffffff1662000259620002c0565b73ffffffffffffffffffffffffffffffffffffffff1614620002b2576040517f08c379a0000000000000000000000000000000000000000000000000000000008152600401620002a990620006fc565b60405180910390fd5b620002be6000620003f5565b565b60008060009054906101000a900473ffffffffffffffffffffffffffffffffffffffff16905090565b620002f3620003ed565b73ffffffffffffffffffffffffffffffffffffffff1662000313620002c0565b73ffffffffffffffffffffffffffffffffffffffff16146200036c576040517f08c379a00000000000000000000000000000000000000000000000000000000081526004016200036390620006fc565b60405180910390fd5b600073ffffffffffffffffffffffffffffffffffffffff168173ffffffffffffffffffffffffffffffffffffffff161415620003df576040517f08c379a0000000000000000000000000000000000000000000000000000000008152600401620003d690620006da565b60405180910390fd5b620003ea81620003f5565b50565b600033905090565b60008060009054906101000a900473ffffffffffffffffffffffffffffffffffffffff169050816000806101000a81548173ffffffffffffffffffffffffffffffffffffffff021916908373ffffffffffffffffffffffffffffffffffffffff1602179055508173ffffffffffffffffffffffffffffffffffffffff168173ffffffffffffffffffffffffffffffffffffffff167f8be0079c531659141344cd1fd0a4f28419497f9722a3daafe3b4186f6b6457e060405160405180910390a35050565b61205080620007d483390190565b600081359050620004d8816200079f565b92915050565b600081359050620004ef81620007b9565b92915050565b6000602082840312156200050857600080fd5b60006200051884828501620004c7565b91505092915050565b6000806000606084860312156200053757600080fd5b60006200054786828701620004de565b93505060206200055a86828701620004c7565b92505060406200056d86828701620004c7565b9150509250925092565b62000582816200072f565b82525050565b620005938162000777565b82525050565b6000620005a86026836200071e565b91507f4f776e61626c653a206e6577206f776e657220697320746865207a65726f206160008301527f64647265737300000000000000000000000000000000000000000000000000006020830152604082019050919050565b6000620006106020836200071e565b91507f4f776e61626c653a2063616c6c6572206973206e6f7420746865206f776e65726000830152602082019050919050565b60006020820190506200065a600083018462000577565b92915050565b600060608201905062000677600083018662000577565b62000686602083018562000577565b62000695604083018462000577565b949350505050565b6000606082019050620006b4600083018662000588565b620006c3602083018562000577565b620006d2604083018462000577565b949350505050565b60006020820190508181036000830152620006f58162000599565b9050919050565b60006020820190508181036000830152620007178162000601565b9050919050565b600082825260208201905092915050565b60006200073c8262000757565b9050919050565b600062000750826200072f565b9050919050565b600073ffffffffffffffffffffffffffffffffffffffff82169050919050565b600062000784826200078b565b9050919050565b6000620007988262000757565b9050919050565b620007aa816200072f565b8114620007b657600080fd5b50565b620007c48162000743565b8114620007d057600080fd5b5056fe60806040523480156200001157600080fd5b5060405162002050380380620020508339818101604052810190620000379190620003a1565b620000576200004b6200026460201b60201c565b6200026c60201b60201c565b60405180604001604052808473ffffffffffffffffffffffffffffffffffffffff1681526020018473ffffffffffffffffffffffffffffffffffffffff1663b6d200de7fa9214cc96615e0085d3bb077758db69497dc2dce3b2b1e97bc93c3d18d83efd36040518263ffffffff1660e01b8152600401620000d9919062000408565b60206040518083038186803b158015620000f257600080fd5b505afa15801562000107573d6000803e3d6000fd5b505050506040513d601f19601f820116820180604052508101906200012d919062000375565b73ffffffffffffffffffffffffffffffffffffffff16815250600360008201518160000160006101000a81548173ffffffffffffffffffffffffffffffffffffffff021916908373ffffffffffffffffffffffffffffffffffffffff16021790555060208201518160010160006101000a81548173ffffffffffffffffffffffffffffffffffffffff021916908373ffffffffffffffffffffffffffffffffffffffff16021790555090505081600260006101000a81548173ffffffffffffffffffffffffffffffffffffffff021916908373ffffffffffffffffffffffffffffffffffffffff16021790555080600160006101000a81548173ffffffffffffffffffffffffffffffffffffffff021916908373ffffffffffffffffffffffffffffffffffffffff160217905550505050620004d9565b600033905090565b60008060009054906101000a900473ffffffffffffffffffffffffffffffffffffffff169050816000806101000a81548173ffffffffffffffffffffffffffffffffffffffff021916908373ffffffffffffffffffffffffffffffffffffffff1602179055508173ffffffffffffffffffffffffffffffffffffffff168173ffffffffffffffffffffffffffffffffffffffff167f8be0079c531659141344cd1fd0a4f28419497f9722a3daafe3b4186f6b6457e060405160405180910390a35050565b60008151905062000341816200048b565b92915050565b6000815190506200035881620004a5565b92915050565b6000815190506200036f81620004bf565b92915050565b6000602082840312156200038857600080fd5b6000620003988482850162000347565b91505092915050565b600080600060608486031215620003b757600080fd5b6000620003c7868287016200035e565b9350506020620003da8682870162000330565b9250506040620003ed8682870162000330565b9150509250925092565b620004028162000439565b82525050565b60006020820190506200041f6000830184620003f7565b92915050565b600062000432826200046b565b9050919050565b6000819050919050565b6000620004508262000425565b9050919050565b6000620004648262000425565b9050919050565b600073ffffffffffffffffffffffffffffffffffffffff82169050919050565b620004968162000425565b8114620004a257600080fd5b50565b620004b08162000443565b8114620004bc57600080fd5b50565b620004ca8162000457565b8114620004d657600080fd5b50565b611b6780620004e96000396000f3fe608060405234801561001057600080fd5b50600436106100935760003560e01c80639dad9382116100665780639dad9382146100f8578063b914616114610102578063d3112b2e14610120578063decef5731461013f578063f2fde38b1461015b57610093565b80632484ea2f146100985780632e1a7d4d146100b4578063715018a6146100d05780638da5cb5b146100da575b600080fd5b6100b260048036038101906100ad9190611359565b610177565b005b6100ce60048036038101906100c99190611412565b6103cc565b005b6100d86105b0565b005b6100e2610638565b6040516100ef9190611699565b60405180910390f35b610100610661565b005b61010a6107ee565b6040516101179190611898565b60405180910390f35b6101286108c7565b6040516101369291906117ef565b60405180910390f35b61015960048036038101906101549190611464565b610919565b005b61017560048036038101906101709190611330565b610b2e565b005b61017f610c26565b73ffffffffffffffffffffffffffffffffffffffff1661019d610638565b73ffffffffffffffffffffffffffffffffffffffff16146101f3576040517f08c379a00000000000000000000000000000000000000000000000000000000081526004016101ea90611838565b60405180910390fd5b6102a6600160009054906101000a900473ffffffffffffffffffffffffffffffffffffffff1673ffffffffffffffffffffffffffffffffffffffff166370a08231306040518263ffffffff1660e01b81526004016102519190611699565b60206040518083038186803b15801561026957600080fd5b505afa15801561027d573d6000803e3d6000fd5b505050506040513d601f19601f820116820180604052508101906102a1919061143b565b6103cc565b82600260006101000a81548173ffffffffffffffffffffffffffffffffffffffff021916908373ffffffffffffffffffffffffffffffffffffffff16021790555081600160006101000a81548173ffffffffffffffffffffffffffffffffffffffff021916908373ffffffffffffffffffffffffffffffffffffffff16021790555080600060146101000a8154816bffffffffffffffffffffffff0219169083600b0b6bffffffffffffffffffffffff1602179055506103c7600260009054906101000a900473ffffffffffffffffffffffffffffffffffffffff16600160009054906101000a900473ffffffffffffffffffffffffffffffffffffffff16600060149054906101000a9004600b0b6003610c2e909392919063ffffffff16565b505050565b80600160009054906101000a900473ffffffffffffffffffffffffffffffffffffffff1673ffffffffffffffffffffffffffffffffffffffff166370a08231306040518263ffffffff1660e01b81526004016104289190611699565b60206040518083038186803b15801561044057600080fd5b505afa158015610454573d6000803e3d6000fd5b505050506040513d601f19601f82011682018060405250810190610478919061143b565b10156104b9576040517f08c379a00000000000000000000000000000000000000000000000000000000081526004016104b090611878565b60405180910390fd5b6000600160009054906101000a900473ffffffffffffffffffffffffffffffffffffffff1673ffffffffffffffffffffffffffffffffffffffff1663a9059cbb33846040518363ffffffff1660e01b81526004016105189291906116eb565b602060405180830381600087803b15801561053257600080fd5b505af1158015610546573d6000803e3d6000fd5b505050506040513d601f19601f8201168201806040525081019061056a91906113a8565b9050806105ac576040517f08c379a00000000000000000000000000000000000000000000000000000000081526004016105a390611858565b60405180910390fd5b5050565b6105b8610c26565b73ffffffffffffffffffffffffffffffffffffffff166105d6610638565b73ffffffffffffffffffffffffffffffffffffffff161461062c576040517f08c379a000000000000000000000000000000000000000000000000000000000815260040161062390611838565b60405180910390fd5b6106366000610dfd565b565b60008060009054906101000a900473ffffffffffffffffffffffffffffffffffffffff16905090565b610669610c26565b73ffffffffffffffffffffffffffffffffffffffff16610687610638565b73ffffffffffffffffffffffffffffffffffffffff16146106dd576040517f08c379a00000000000000000000000000000000000000000000000000000000081526004016106d490611838565b60405180910390fd5b61073933600260009054906101000a900473ffffffffffffffffffffffffffffffffffffffff16600160009054906101000a900473ffffffffffffffffffffffffffffffffffffffff166003610ec1909392919063ffffffff16565b6107ec600160009054906101000a900473ffffffffffffffffffffffffffffffffffffffff1673ffffffffffffffffffffffffffffffffffffffff166370a08231306040518263ffffffff1660e01b81526004016107979190611699565b60206040518083038186803b1580156107af57600080fd5b505afa1580156107c3573d6000803e3d6000fd5b505050506040513d601f19601f820116820180604052508101906107e7919061143b565b6103cc565b565b60008060149054906101000a9004600b0b6bffffffffffffffffffffffff16600160009054906101000a900473ffffffffffffffffffffffffffffffffffffffff1673ffffffffffffffffffffffffffffffffffffffff166370a08231306040518263ffffffff1660e01b81526004016108689190611699565b60206040518083038186803b15801561088057600080fd5b505afa158015610894573d6000803e3d6000fd5b505050506040513d601f19601f820116820180604052508101906108b8919061143b565b6108c29190611941565b905090565b60038060000160009054906101000a900473ffffffffffffffffffffffffffffffffffffffff16908060010160009054906101000a900473ffffffffffffffffffffffffffffffffffffffff16905082565b610921610c26565b73ffffffffffffffffffffffffffffffffffffffff1661093f610638565b73ffffffffffffffffffffffffffffffffffffffff1614610995576040517f08c379a000000000000000000000000000000000000000000000000000000000815260040161098c90611838565b60405180910390fd5b6000600160009054906101000a900473ffffffffffffffffffffffffffffffffffffffff1673ffffffffffffffffffffffffffffffffffffffff166323b872dd3330866040518463ffffffff1660e01b81526004016109f6939291906116b4565b602060405180830381600087803b158015610a1057600080fd5b505af1158015610a24573d6000803e3d6000fd5b505050506040513d601f19601f82011682018060405250810190610a4891906113a8565b905080610a8a576040517f08c379a0000000000000000000000000000000000000000000000000000000008152600401610a8190611858565b60405180910390fd5b81600060146101000a8154816bffffffffffffffffffffffff0219169083600b0b6bffffffffffffffffffffffff160217905550610b29600260009054906101000a900473ffffffffffffffffffffffffffffffffffffffff16600160009054906101000a900473ffffffffffffffffffffffffffffffffffffffff16600060149054906101000a9004600b0b6003611090909392919063ffffffff16565b505050565b610b36610c26565b73ffffffffffffffffffffffffffffffffffffffff16610b54610638565b73ffffffffffffffffffffffffffffffffffffffff1614610baa576040517f08c379a0000000000000000000000000000000000000000000000000000000008152600401610ba190611838565b60405180910390fd5b600073ffffffffffffffffffffffffffffffffffffffff168173ffffffffffffffffffffffffffffffffffffffff161415610c1a576040517f08c379a0000000000000000000000000000000000000000000000000000000008152600401610c1190611818565b60405180910390fd5b610c2381610dfd565b50565b600033905090565b8360000160009054906101000a900473ffffffffffffffffffffffffffffffffffffffff1673ffffffffffffffffffffffffffffffffffffffff166339255d5b8560010160009054906101000a900473ffffffffffffffffffffffffffffffffffffffff166350209a6260e01b858786600067ffffffffffffffff811115610cdf577f4e487b7100000000000000000000000000000000000000000000000000000000600052604160045260246000fd5b6040519080825280601f01601f191660200182016040528015610d115781602001600182028036833780820191505090505b50604051602401610d2594939291906117a3565b604051602081830303815290604052907bffffffffffffffffffffffffffffffffffffffffffffffffffffffff19166020820180517bffffffffffffffffffffffffffffffffffffffffffffffffffffffff83818316178352505050506040518363ffffffff1660e01b8152600401610d9f929190611714565b600060405180830381600087803b158015610db957600080fd5b505af1158015610dcd573d6000803e3d6000fd5b505050506040513d6000823e3d601f19601f82011682018060405250810190610df691906113d1565b5050505050565b60008060009054906101000a900473ffffffffffffffffffffffffffffffffffffffff169050816000806101000a81548173ffffffffffffffffffffffffffffffffffffffff021916908373ffffffffffffffffffffffffffffffffffffffff1602179055508173ffffffffffffffffffffffffffffffffffffffff168173ffffffffffffffffffffffffffffffffffffffff167f8be0079c531659141344cd1fd0a4f28419497f9722a3daafe3b4186f6b6457e060405160405180910390a35050565b8360000160009054906101000a900473ffffffffffffffffffffffffffffffffffffffff1673ffffffffffffffffffffffffffffffffffffffff166339255d5b8560010160009054906101000a900473ffffffffffffffffffffffffffffffffffffffff1663b4b333c660e01b848787600067ffffffffffffffff811115610f72577f4e487b7100000000000000000000000000000000000000000000000000000000600052604160045260246000fd5b6040519080825280601f01601f191660200182016040528015610fa45781602001600182028036833780820191505090505b50604051602401610fb89493929190611757565b604051602081830303815290604052907bffffffffffffffffffffffffffffffffffffffffffffffffffffffff19166020820180517bffffffffffffffffffffffffffffffffffffffffffffffffffffffff83818316178352505050506040518363ffffffff1660e01b8152600401611032929190611714565b600060405180830381600087803b15801561104c57600080fd5b505af1158015611060573d6000803e3d6000fd5b505050506040513d6000823e3d601f19601f8201168201806040525081019061108991906113d1565b5050505050565b8360000160009054906101000a900473ffffffffffffffffffffffffffffffffffffffff1673ffffffffffffffffffffffffffffffffffffffff166339255d5b8560010160009054906101000a900473ffffffffffffffffffffffffffffffffffffffff166362fc305e60e01b858786600067ffffffffffffffff811115611141577f4e487b7100000000000000000000000000000000000000000000000000000000600052604160045260246000fd5b6040519080825280601f01601f1916602001820160405280156111735781602001600182028036833780820191505090505b5060405160240161118794939291906117a3565b604051602081830303815290604052907bffffffffffffffffffffffffffffffffffffffffffffffffffffffff19166020820180517bffffffffffffffffffffffffffffffffffffffffffffffffffffffff83818316178352505050506040518363ffffffff1660e01b8152600401611201929190611714565b600060405180830381600087803b15801561121b57600080fd5b505af115801561122f573d6000803e3d6000fd5b505050506040513d6000823e3d601f19601f8201168201806040525081019061125891906113d1565b5050505050565b600061127261126d846118e4565b6118b3565b90508281526020810184848401111561128a57600080fd5b611295848285611a33565b509392505050565b6000813590506112ac81611ad5565b92915050565b6000815190506112c181611aec565b92915050565b600082601f8301126112d857600080fd5b81516112e884826020860161125f565b91505092915050565b60008135905061130081611b03565b92915050565b60008135905061131581611b1a565b92915050565b60008151905061132a81611b1a565b92915050565b60006020828403121561134257600080fd5b60006113508482850161129d565b91505092915050565b60008060006060848603121561136e57600080fd5b600061137c8682870161129d565b935050602061138d8682870161129d565b925050604061139e868287016112f1565b9150509250925092565b6000602082840312156113ba57600080fd5b60006113c8848285016112b2565b91505092915050565b6000602082840312156113e357600080fd5b600082015167ffffffffffffffff8111156113fd57600080fd5b611409848285016112c7565b91505092915050565b60006020828403121561142457600080fd5b600061143284828501611306565b91505092915050565b60006020828403121561144d57600080fd5b600061145b8482850161131b565b91505092915050565b6000806040838503121561147757600080fd5b600061148585828601611306565b9250506020611496858286016112f1565b9150509250929050565b6114a981611972565b82525050565b60006114ba82611914565b6114c4818561191f565b93506114d4818560208601611a33565b6114dd81611ac4565b840191505092915050565b6114f1816119c7565b82525050565b611500816119eb565b82525050565b61150f81611a0f565b82525050565b61151e81611990565b82525050565b6000611531602683611930565b91507f4f776e61626c653a206e6577206f776e657220697320746865207a65726f206160008301527f64647265737300000000000000000000000000000000000000000000000000006020830152604082019050919050565b600061159760028361191f565b91507f30780000000000000000000000000000000000000000000000000000000000006000830152602082019050919050565b60006115d7602083611930565b91507f4f776e61626c653a2063616c6c6572206973206e6f7420746865206f776e65726000830152602082019050919050565b6000611617601683611930565b91507f546f6b656e207472616e73666572206661696c65642e000000000000000000006000830152602082019050919050565b6000611657601383611930565b91507f496e73756666696369656e742066756e64732e000000000000000000000000006000830152602082019050919050565b611693816119bd565b82525050565b60006020820190506116ae60008301846114a0565b92915050565b60006060820190506116c960008301866114a0565b6116d660208301856114a0565b6116e3604083018461168a565b949350505050565b600060408201905061170060008301856114a0565b61170d602083018461168a565b9392505050565b600060608201905061172960008301856114e8565b818103602083015261173b81846114af565b9050818103604083015261174e8161158a565b90509392505050565b600060808201905061176c60008301876114f7565b61177960208301866114a0565b61178660408301856114a0565b818103606083015261179881846114af565b905095945050505050565b60006080820190506117b860008301876114f7565b6117c560208301866114a0565b6117d26040830185611515565b81810360608301526117e481846114af565b905095945050505050565b60006040820190506118046000830185611506565b61181160208301846114e8565b9392505050565b6000602082019050818103600083015261183181611524565b9050919050565b60006020820190508181036000830152611851816115ca565b9050919050565b600060208201905081810360008301526118718161160a565b9050919050565b600060208201905081810360008301526118918161164a565b9050919050565b60006020820190506118ad600083018461168a565b92915050565b6000604051905081810181811067ffffffffffffffff821117156118da576118d9611a95565b5b8060405250919050565b600067ffffffffffffffff8211156118ff576118fe611a95565b5b601f19601f8301169050602081019050919050565b600081519050919050565b600082825260208201905092915050565b600082825260208201905092915050565b600061194c826119bd565b9150611957836119bd565b92508261196757611966611a66565b5b828204905092915050565b600061197d8261199d565b9050919050565b60008115159050919050565b600081600b0b9050919050565b600073ffffffffffffffffffffffffffffffffffffffff82169050919050565b6000819050919050565b60006119d2826119d9565b9050919050565b60006119e48261199d565b9050919050565b60006119f6826119fd565b9050919050565b6000611a088261199d565b9050919050565b6000611a1a82611a21565b9050919050565b6000611a2c8261199d565b9050919050565b60005b83811015611a51578082015181840152602081019050611a36565b83811115611a60576000848401525b50505050565b7f4e487b7100000000000000000000000000000000000000000000000000000000600052601260045260246000fd5b7f4e487b7100000000000000000000000000000000000000000000000000000000600052604160045260246000fd5b6000601f19601f8301169050919050565b611ade81611972565b8114611ae957600080fd5b50565b611af581611984565b8114611b0057600080fd5b50565b611b0c81611990565b8114611b1757600080fd5b50565b611b23816119bd565b8114611b2e57600080fd5b5056fea26469706673582212205b6639dfde055bb4d23fbe9d95ef727adab378e05f393b0fa997cccfe767180e64736f6c63430008000033a2646970667358221220b23c0cf18b32c1247457cf9e98834c4034a32b0e4b079d86589958b22a11db3064736f6c63430008000033",
  "linkReferences": {},
  "deployedLinkReferences": {}
}